{
  "contractName": "SCC",
  "abi": [
    {
      "constant": true,
      "inputs": [
        {
          "name": "",
          "type": "uint256"
        },
        {
          "name": "",
          "type": "uint256"
        }
      ],
      "name": "reports",
      "outputs": [
        {
          "name": "",
          "type": "bytes32"
        }
      ],
      "payable": false,
      "stateMutability": "view",
      "type": "function"
    },
    {
      "constant": true,
      "inputs": [
        {
          "name": "",
          "type": "uint256"
        }
      ],
      "name": "permissions",
      "outputs": [
        {
          "name": "",
          "type": "bytes32"
        }
      ],
      "payable": false,
      "stateMutability": "view",
      "type": "function"
    },
    {
      "constant": true,
      "inputs": [],
      "name": "binaryHash",
      "outputs": [
        {
          "name": "",
          "type": "string"
        }
      ],
      "payable": false,
      "stateMutability": "view",
      "type": "function"
    },
    {
      "inputs": [
        {
          "name": "_binaryHash",
          "type": "string"
        },
        {
          "name": "_permissions",
          "type": "bytes32[]"
        }
      ],
      "payable": false,
      "stateMutability": "nonpayable",
      "type": "constructor"
    },
    {
      "anonymous": false,
      "inputs": [
        {
          "indexed": true,
          "name": "reportId",
          "type": "uint256"
        },
        {
          "indexed": true,
          "name": "user",
          "type": "address"
        },
        {
          "indexed": false,
          "name": "reportSoftwareBehavior",
          "type": "bytes32[]"
        },
        {
          "indexed": true,
          "name": "violated",
          "type": "bool"
        }
      ],
      "name": "ReportGenerated",
      "type": "event"
    },
    {
      "constant": false,
      "inputs": [
        {
          "name": "_key",
          "type": "bytes32"
        }
      ],
      "name": "registerKey",
      "outputs": [],
      "payable": false,
      "stateMutability": "nonpayable",
      "type": "function"
    },
    {
      "constant": false,
      "inputs": [
        {
          "name": "_key",
          "type": "bytes32"
        }
      ],
      "name": "authorizeUser",
      "outputs": [],
      "payable": false,
      "stateMutability": "nonpayable",
      "type": "function"
    },
    {
      "constant": false,
      "inputs": [],
      "name": "revokeAuthorization",
      "outputs": [],
      "payable": false,
      "stateMutability": "nonpayable",
      "type": "function"
    },
    {
      "constant": true,
      "inputs": [],
      "name": "retrieveReportOverview",
      "outputs": [
        {
          "name": "",
          "type": "uint256"
        },
        {
          "name": "",
          "type": "uint256"
        },
        {
          "name": "",
          "type": "uint256"
        },
        {
          "name": "",
          "type": "uint256"
        }
      ],
      "payable": false,
      "stateMutability": "view",
      "type": "function"
    },
    {
      "constant": false,
      "inputs": [
        {
          "name": "_reportSoftwareBehavior",
          "type": "bytes32[]"
        },
        {
          "name": "_signature",
          "type": "bytes"
        }
      ],
      "name": "generateReport",
      "outputs": [],
      "payable": false,
      "stateMutability": "nonpayable",
      "type": "function"
    },
    {
      "constant": true,
      "inputs": [
        {
          "name": "_hash",
          "type": "bytes32"
        },
        {
          "name": "_signature",
          "type": "bytes"
        }
      ],
      "name": "verifySignature",
      "outputs": [
        {
          "name": "",
          "type": "address"
        }
      ],
      "payable": false,
      "stateMutability": "pure",
      "type": "function"
    },
    {
      "constant": true,
      "inputs": [
        {
          "name": "_hash",
          "type": "bytes32"
        }
      ],
      "name": "prefixed",
      "outputs": [
        {
          "name": "",
          "type": "bytes32"
        }
      ],
      "payable": false,
      "stateMutability": "pure",
      "type": "function"
    },
    {
      "constant": true,
      "inputs": [
        {
          "name": "_messageHash",
          "type": "bytes32"
        },
        {
          "name": "_signature",
          "type": "bytes"
        }
      ],
      "name": "recoverSigner",
      "outputs": [
        {
          "name": "",
          "type": "address"
        }
      ],
      "payable": false,
      "stateMutability": "pure",
      "type": "function"
    }
  ],
  "bytecode": "0x6080604052731234567890abcdef1234567890abcdef123456786000806101000a81548173ffffffffffffffffffffffffffffffffffffffff021916908373ffffffffffffffffffffffffffffffffffffffff1602179055503480156200006557600080fd5b506040516200172c3803806200172c833981018060405260408110156200008b57600080fd5b810190808051640100000000811115620000a457600080fd5b82810190506020810184811115620000bb57600080fd5b8151856001820283011164010000000082111715620000d957600080fd5b50509291906020018051640100000000811115620000f657600080fd5b828101905060208101848111156200010d57600080fd5b81518560208202830111640100000000821117156200012b57600080fd5b505092919050505033600360006101000a81548173ffffffffffffffffffffffffffffffffffffffff021916908373ffffffffffffffffffffffffffffffffffffffff16021790555081600190805190602001906200018c929190620001ae565b508060029080519060200190620001a592919062000235565b505050620002d7565b828054600181600116156101000203166002900490600052602060002090601f016020900481019282601f10620001f157805160ff191683800117855562000222565b8280016001018555821562000222579182015b828111156200022157825182559160200191906001019062000204565b5b50905062000231919062000287565b5090565b82805482825590600052602060002090810192821562000274579160200282015b828111156200027357825182559160200191906001019062000256565b5b509050620002839190620002af565b5090565b620002ac91905b80821115620002a85760008160009055506001016200028e565b5090565b90565b620002d491905b80821115620002d0576000816000905550600101620002b6565b5090565b90565b61144580620002e76000396000f3fe6080604052600436106100a9576000357c0100000000000000000000000000000000000000000000000000000000900480631f275713146100ae5780632d283db5146100fd57806337b058121461015657806345d74fa51461016d57806358886dba146102c95780637950055e146103185780637dae3945146103a857806397aba7f9146103e3578063c72ac8be146104f5578063cd80557e14610535578063daca6f7814610570575b600080fd5b3480156100ba57600080fd5b506100e7600480360360208110156100d157600080fd5b8101908080359060200190929190505050610682565b6040518082815260200191505060405180910390f35b34801561010957600080fd5b506101406004803603604081101561012057600080fd5b8101908080359060200190929190803590602001909291905050506106da565b6040518082815260200191505060405180910390f35b34801561016257600080fd5b5061016b61070a565b005b34801561017957600080fd5b506102c76004803603604081101561019057600080fd5b81019080803590602001906401000000008111156101ad57600080fd5b8201836020820111156101bf57600080fd5b803590602001918460208302840111640100000000831117156101e157600080fd5b919080806020026020016040519081016040528093929190818152602001838360200280828437600081840152601f19601f8201169050808301925050505050505091929192908035906020019064010000000081111561024157600080fd5b82018360208201111561025357600080fd5b8035906020019184600183028401116401000000008311171561027557600080fd5b91908080601f016020809104026020016040519081016040528093929190818152602001838380828437600081840152601f19601f820116905080830192505050505050509192919290505050610887565b005b3480156102d557600080fd5b50610302600480360360208110156102ec57600080fd5b8101908080359060200190929190505050610aaf565b6040518082815260200191505060405180910390f35b34801561032457600080fd5b5061032d610ad2565b6040518080602001828103825283818151815260200191508051906020019080838360005b8381101561036d578082015181840152602081019050610352565b50505050905090810190601f16801561039a5780820380516001836020036101000a031916815260200191505b509250505060405180910390f35b3480156103b457600080fd5b506103e1600480360360208110156103cb57600080fd5b8101908080359060200190929190505050610b70565b005b3480156103ef57600080fd5b506104b36004803603604081101561040657600080fd5b81019080803590602001909291908035906020019064010000000081111561042d57600080fd5b82018360208201111561043f57600080fd5b8035906020019184600183028401116401000000008311171561046157600080fd5b91908080601f016020809104026020016040519081016040528093929190818152602001838380828437600081840152601f19601f820116905080830192505050505050509192919290505050610ed0565b604051808273ffffffffffffffffffffffffffffffffffffffff1673ffffffffffffffffffffffffffffffffffffffff16815260200191505060405180910390f35b34801561050157600080fd5b5061050a610fda565b6040518085815260200184815260200183815260200182815260200194505050505060405180910390f35b34801561054157600080fd5b5061056e6004803603602081101561055857600080fd5b8101908080359060200190929190505050610ffa565b005b34801561057c57600080fd5b506106406004803603604081101561059357600080fd5b8101908080359060200190929190803590602001906401000000008111156105ba57600080fd5b8201836020820111156105cc57600080fd5b803590602001918460018302840111640100000000831117156105ee57600080fd5b91908080601f016020809104026020016040519081016040528093929190818152602001838380828437600081840152601f19601f82011690508083019250505050505050919291929050505061122e565b604051808273ffffffffffffffffffffffffffffffffffffffff1673ffffffffffffffffffffffffffffffffffffffff16815260200191505060405180910390f35b60008160405160200180807f19457468657265756d205369676e6564204d6573736167653a0a333200000000815250601c01828152602001915050604051602081830303815290604052805190602001209050919050565b6007602052816000526040600020818154811015156106f557fe5b90600052602060002001600091509150505481565b6000600102600460003373ffffffffffffffffffffffffffffffffffffffff1673ffffffffffffffffffffffffffffffffffffffff16815260200190815260200160002054141515156107c5576040517f08c379a000000000000000000000000000000000000000000000000000000000815260040180806020018281038252601b8152602001807f596f7520617265206e6f74206120736f6674776172652075736572000000000081525060200191505060405180910390fd5b6000600102600460003373ffffffffffffffffffffffffffffffffffffffff1673ffffffffffffffffffffffffffffffffffffffff16815260200190815260200160002081905550600960008154809291906001900391905055506000600860003373ffffffffffffffffffffffffffffffffffffffff1673ffffffffffffffffffffffffffffffffffffffff1681526020019081526020016000205414151561087d57600b60008154809291906001900391905055505b610885611255565b565b60008260405160200180828051906020019060200280838360005b838110156108bd5780820151818401526020810190506108a2565b5050505090500191505060405160208183030381529060405280519060200120905060006108eb828461122e565b90506000809054906101000a900473ffffffffffffffffffffffffffffffffffffffff1673ffffffffffffffffffffffffffffffffffffffff168173ffffffffffffffffffffffffffffffffffffffff161415156109d7576040517f08c379a00000000000000000000000000000000000000000000000000000000081526004018080602001828103825260318152602001807f5369676e617475726520766572696669636174696f6e206661696c6564206f7281526020017f2061646472657373206d69736d6174636800000000000000000000000000000081525060400191505060405180910390fd5b600c600081548092919060010191905055508360076000600c5481526020019081526020016000209080519060200190610a129291906113a7565b50600115153373ffffffffffffffffffffffffffffffffffffffff16600c547f4a2c29b8a73be35a9f6a20468abc2655f429761138bd811e851d34480d2611b9876040518080602001828103825283818151815260200191508051906020019060200280838360005b83811015610a96578082015181840152602081019050610a7b565b505050509050019250505060405180910390a450505050565b600281815481101515610abe57fe5b906000526020600020016000915090505481565b60018054600181600116156101000203166002900480601f016020809104026020016040519081016040528092919081815260200182805460018160011615610100020316600290048015610b685780601f10610b3d57610100808354040283529160200191610b68565b820191906000526020600020905b815481529060010190602001808311610b4b57829003601f168201915b505050505081565b600360009054906101000a900473ffffffffffffffffffffffffffffffffffffffff1673ffffffffffffffffffffffffffffffffffffffff163373ffffffffffffffffffffffffffffffffffffffff1614151515610c5c576040517f08c379a00000000000000000000000000000000000000000000000000000000081526004018080602001828103825260238152602001807f4e6f7420617661696c61626c6520746f2074686520636f6e7472616374206f7781526020017f6e6572000000000000000000000000000000000000000000000000000000000081525060400191505060405180910390fd5b6006600082815260200190815260200160002060009054906101000a900460ff161515610cf1576040517f08c379a000000000000000000000000000000000000000000000000000000000815260040180806020018281038252600b8152602001807f496e76616c6964206b657900000000000000000000000000000000000000000081525060200191505060405180910390fd5b6005600082815260200190815260200160002060009054906101000a900460ff16151515610d87576040517f08c379a00000000000000000000000000000000000000000000000000000000081526004018080602001828103825260108152602001807f4b657920616c726561647920757365640000000000000000000000000000000081525060200191505060405180910390fd5b80600460003373ffffffffffffffffffffffffffffffffffffffff1673ffffffffffffffffffffffffffffffffffffffff1681526020019081526020016000208190555060016005600083815260200190815260200160002060006101000a81548160ff021916908315150217905550600960008154809291906001019190505550600a3390806001815401808255809150509060018203906000526020600020016000909192909190916101000a81548173ffffffffffffffffffffffffffffffffffffffff021916908373ffffffffffffffffffffffffffffffffffffffff16021790555050600b6000815480929190600101919050555042600860003373ffffffffffffffffffffffffffffffffffffffff1673ffffffffffffffffffffffffffffffffffffffff16815260200190815260200160002081905550610ecd611255565b50565b600060418251141515610f4b576040517f08c379a00000000000000000000000000000000000000000000000000000000081526004018080602001828103825260188152602001807f496e76616c6964207369676e6174757265206c656e677468000000000000000081525060200191505060405180910390fd5b60008060006020850151925060408501519150606085015160001a905060018682858560405160008152602001604052604051808581526020018460ff1660ff1681526020018381526020018281526020019450505050506020604051602081039080840390855afa158015610fc5573d6000803e3d6000fd5b50505060206040510351935050505092915050565b600080600080600954600b54600c54600d54935093509350935090919293565b600360009054906101000a900473ffffffffffffffffffffffffffffffffffffffff1673ffffffffffffffffffffffffffffffffffffffff163373ffffffffffffffffffffffffffffffffffffffff161415156110e5576040517f08c379a000000000000000000000000000000000000000000000000000000000815260040180806020018281038252602e8152602001807f4f6e6c792074686520636f6e7472616374206f776e65722063616e2063616c6c81526020017f20746869732066756e6374696f6e00000000000000000000000000000000000081525060400191505060405180910390fd5b60006001028114151515611161576040517f08c379a000000000000000000000000000000000000000000000000000000000815260040180806020018281038252600b8152602001807f496e76616c6964206b657900000000000000000000000000000000000000000081525060200191505060405180910390fd5b6006600082815260200190815260200160002060009054906101000a900460ff161515156111f7576040517f08c379a00000000000000000000000000000000000000000000000000000000081526004018080602001828103825260168152602001807f4b657920616c726561647920726567697374657265640000000000000000000081525060200191505060405180910390fd5b60016006600083815260200190815260200160002060006101000a81548160ff02191690831515021790555061122b611255565b50565b60008061123a84610682565b905060006112488285610ed0565b9050809250505092915050565b60008090505b600a805490508110156113a457600060086000600a8481548110151561127d57fe5b9060005260206000200160009054906101000a900473ffffffffffffffffffffffffffffffffffffffff1673ffffffffffffffffffffffffffffffffffffffff1673ffffffffffffffffffffffffffffffffffffffff168152602001908152602001600020549050600081141515611396576000814203905062093a808110151561139457600b6000815480929190600190039190505550600060086000600a8681548110151561132a57fe5b9060005260206000200160009054906101000a900473ffffffffffffffffffffffffffffffffffffffff1673ffffffffffffffffffffffffffffffffffffffff1673ffffffffffffffffffffffffffffffffffffffff168152602001908152602001600020819055505b505b50808060010191505061125b565b50565b8280548282559060005260206000209081019282156113e3579160200282015b828111156113e25782518255916020019190600101906113c7565b5b5090506113f091906113f4565b5090565b61141691905b808211156114125760008160009055506001016113fa565b5090565b9056fea165627a7a723058206402fca7e1df40f57881a1935e9a98e085c68e010132f82ba3cd2db40e1fbca30029",
  "source": "// SPDX-License-Identifier: MIT\r\npragma solidity >=0.4.22 <0.9.0;\r\n\r\n/**\r\n * @title SCC - Software Compliance Contract\r\n * @dev Manages Software Permissions and Binary Monitoring\r\n */\r\n\r\n/**\r\n * Requirements:\r\n *\r\n * Owner (Company):\r\n *  -> Can submit permissions and binary hash on creation\r\n *  -> Can register keys for software user logins\r\n *\r\n * Software Users:\r\n *  -> Can submit a report\r\n *  -> Can revoke authorization upon software uninstallation\r\n *  -> Can link themselves to a valid key upon software installation (login)\r\n *\r\n *  Everyone:\r\n *  -> Consults Binary Hash and Permissions\r\n *  -> Views reports with behaviors.\r\n *  -> Accesses an overview of all reports.\r\n */\r\n\r\ncontract SCC {\r\n\r\n    address private microsoftAddress = 0x1234567890AbcdEF1234567890aBcdef12345678;\r\n    \r\n    // variable to define time to inactivity\r\n    uint256 constant inactivityPeriod = 1 weeks;\r\n\r\n    // Binary hash representing the software's unique identifier\r\n    string public binaryHash;\r\n\r\n    // Array storing the list of permissions associated with the software\r\n    bytes32[] public permissions;\r\n\r\n    // Address of the contract owner, typically the company managing the software\r\n    address private owner;\r\n\r\n    /* MAPPING */\r\n    //  User addresses to their respective access keys for software validation\r\n    mapping(address => bytes32) private userToKeys;\r\n    // Keys to used or not used\r\n    mapping(bytes32 => bool) private usedKeys;\r\n    // List registered keys\r\n    mapping(bytes32 => bool) private registeredKeys;\r\n    // Report IDs to arrays of software behavior descriptions\r\n    mapping(uint256 => bytes32[]) public reports;\r\n\r\n    mapping(address => uint256) private userToLastInteraction;\r\n\r\n    /* COUNTER */\r\n    //  for software users\r\n    uint256 private users;\r\n    address[] private usersAddress;\r\n    //  for activate software users\r\n    uint256 private activeUsers;\r\n    //  for generated reports\r\n    uint256 private reportCount;\r\n\r\n    // For reporting permissions that have been violated\r\n    uint256 private violatedPermissionsCount;\r\n\r\n    // Event emitted when a new software behavior report is generated\r\n    event ReportGenerated(\r\n        uint256 indexed reportId, // Unique identifier for the report\r\n        address indexed user, // Address of the user who generated the report\r\n        bytes32[] reportSoftwareBehavior, // Array of behaviors reported by the user\r\n        bool indexed violated //Flag indicating if permissions were violated\r\n    );\r\n\r\n    /* MODIFIERS */\r\n    // Restrict access to owner-only functions\r\n    modifier onlyOwner() {\r\n        require(msg.sender == owner, \"Only the contract owner can call this function\");\r\n        _;\r\n    }\r\n\r\n    //Restrict access to functions not allowed for the contract owner.\r\n    modifier onlyNotOwner() {\r\n        require(msg.sender != owner, \"Not available to the contract owner\");\r\n        _;\r\n    }\r\n\r\n    //Restrict access to functions allowed only for registered software users.\r\n    modifier onlySoftwareUser() {\r\n        require(userToKeys[msg.sender] != bytes32(0), \"You are not a software user\");\r\n        _;\r\n    }\r\n\r\n    // Constructor to initialize the contract with binary hash and permissions\r\n    constructor(string memory _binaryHash, bytes32[] memory _permissions) public {\r\n        owner = msg.sender;\r\n        binaryHash = _binaryHash;\r\n        permissions = _permissions;\r\n    }\r\n\r\n    // Key example: 0x1234567890abcdef1234567890abcdef1234567890abcdef1234567890abcdef\r\n    // Function to register a new valid key and not used\r\n    function registerKey(bytes32 _key) public onlyOwner {\r\n        require(_key != bytes32(0), \"Invalid key\");\r\n        require(!registeredKeys[_key], \"Key already registered\");\r\n        registeredKeys[_key] = true;\r\n        checkAndUpdateInactiveUser();\r\n    }\r\n\r\n    // Function to a software user authorize yourself\r\n    function authorizeUser(bytes32 _key) public onlyNotOwner {\r\n        require(registeredKeys[_key], \"Invalid key\");\r\n        require(!usedKeys[_key], \"Key already used\");\r\n        userToKeys[msg.sender] = _key;\r\n        usedKeys[_key] = true;\r\n        users++;\r\n        usersAddress.push(msg.sender);\r\n        activeUsers++;\r\n        userToLastInteraction[msg.sender] = block.timestamp;\r\n        checkAndUpdateInactiveUser();\r\n    }\r\n\r\n    // Function for software users to revoke their own authorization\r\n    function revokeAuthorization() public onlySoftwareUser {\r\n        userToKeys[msg.sender] = bytes32(0);\r\n        users--;\r\n        // if user wasnt inactive, decrement active users\r\n        if(userToLastInteraction[msg.sender]!=0){\r\n            activeUsers--;\r\n        }\r\n        checkAndUpdateInactiveUser();\r\n    }\r\n\r\n    // Function to return a report overview\r\n    function retrieveReportOverview() public view returns (uint256, uint256, uint256, uint256){\r\n        return (users, activeUsers, reportCount, violatedPermissionsCount);\r\n    }\r\n\r\n    // update the activeUser count to approve pending report\r\n    function checkAndUpdateInactiveUser() internal {\r\n        for (uint256 i = 0; i < usersAddress.length; i++) {\r\n            uint256 lastInteraction = userToLastInteraction[usersAddress[i]];\r\n            if (lastInteraction != 0) {\r\n                uint256 timeElapsed = block.timestamp - lastInteraction;\r\n                if (timeElapsed >= inactivityPeriod) {\r\n                    // If the user has become inactive\r\n                    activeUsers--;\r\n                    // Reset the interaction timestamp to 0\r\n                    userToLastInteraction[usersAddress[i]] = 0;\r\n                }\r\n            }\r\n        }\r\n    }\r\n\r\n    function generateReport(bytes32[] memory _reportSoftwareBehavior, bytes memory _signature) public {\r\n        bytes32 reportHash = keccak256(abi.encodePacked(_reportSoftwareBehavior));\r\n        address signer = verifySignature(reportHash, _signature);\r\n\r\n        // Verifica se o endereço do signatário corresponde ao esperado (Microsoft)\r\n        require(signer == microsoftAddress, \"Signature verification failed or address mismatch\");\r\n\r\n        reportCount++;\r\n        reports[reportCount] = _reportSoftwareBehavior;\r\n        emit ReportGenerated(reportCount, msg.sender, _reportSoftwareBehavior, true);\r\n    }\r\n\r\n    // function to verify the signature\r\n    function verifySignature(bytes32 _hash, bytes memory _signature) public pure returns (address) {\r\n        bytes32 messageHash = prefixed(_hash);\r\n        address signer = recoverSigner(messageHash, _signature);\r\n        return signer;\r\n    }\r\n\r\n    // function to add prefix to the message\r\n    function prefixed(bytes32 _hash) public pure returns (bytes32) {\r\n        return keccak256(abi.encodePacked(\"\\x19Ethereum Signed Message:\\n32\", _hash));\r\n    }\r\n\r\n    function recoverSigner(bytes32 _messageHash, bytes memory _signature) public pure returns (address) {\r\n        require(_signature.length == 65, \"Invalid signature length\");\r\n\r\n        bytes32 r;\r\n        bytes32 s;\r\n        uint8 v;\r\n\r\n        assembly {\r\n            r := mload(add(_signature, 32))\r\n            s := mload(add(_signature, 64))\r\n            v := byte(0, mload(add(_signature, 96)))\r\n        }\r\n\r\n        return ecrecover(_messageHash, v, r, s);\r\n    }\r\n\r\n}",
  "sourcePath": "C:\\Users\\hyago\\Desktop\\Mestrado\\SCC\\truffle-contractV1\\contracts\\SCC.sol",
  "compiler": {
    "name": "solc",
    "version": "0.5.1+commit.c8a2cb62.Emscripten.clang"
  },
  "schemaVersion": "3.4.16",
  "updatedAt": "2025-03-24T03:46:14.533Z",
  "networkType": "ethereum",
  "devdoc": {
    "methods": {}
  },
  "userdoc": {
    "methods": {},
    "notice": "Requirements:\r  * Owner (Company):\r -> Can submit permissions and binary hash on creation\r -> Can register keys for software user logins\r  * Software Users:\r -> Can submit a report\r -> Can revoke authorization upon software uninstallation\r -> Can link themselves to a valid key upon software installation (login)\r  *  Everyone:\r -> Consults Binary Hash and Permissions\r -> Views reports with behaviors.\r -> Accesses an overview of all reports.\r"
  }
}