{
  "contractName": "SCC",
  "abi": [
    {
      "constant": true,
      "inputs": [
        {
          "name": "",
          "type": "uint256"
        },
        {
          "name": "",
          "type": "uint256"
        }
      ],
      "name": "reports",
      "outputs": [
        {
          "name": "",
          "type": "string"
        }
      ],
      "payable": false,
      "stateMutability": "view",
      "type": "function"
    },
    {
      "constant": true,
      "inputs": [
        {
          "name": "",
          "type": "uint256"
        }
      ],
      "name": "permissions",
      "outputs": [
        {
          "name": "",
          "type": "string"
        }
      ],
      "payable": false,
      "stateMutability": "view",
      "type": "function"
    },
    {
      "constant": true,
      "inputs": [],
      "name": "binaryHash",
      "outputs": [
        {
          "name": "",
          "type": "string"
        }
      ],
      "payable": false,
      "stateMutability": "view",
      "type": "function"
    },
    {
      "inputs": [
        {
          "name": "_binaryHash",
          "type": "string"
        },
        {
          "name": "_permissions",
          "type": "string[]"
        }
      ],
      "payable": false,
      "stateMutability": "nonpayable",
      "type": "constructor"
    },
    {
      "anonymous": false,
      "inputs": [
        {
          "indexed": true,
          "name": "reportId",
          "type": "uint256"
        },
        {
          "indexed": true,
          "name": "user",
          "type": "address"
        },
        {
          "indexed": false,
          "name": "reportSoftwareBehavior",
          "type": "string[]"
        },
        {
          "indexed": true,
          "name": "violated",
          "type": "bool"
        }
      ],
      "name": "ReportGenerated",
      "type": "event"
    },
    {
      "anonymous": false,
      "inputs": [
        {
          "indexed": true,
          "name": "reportId",
          "type": "uint256"
        },
        {
          "indexed": true,
          "name": "user",
          "type": "address"
        },
        {
          "indexed": false,
          "name": "reportSoftwareBehavior",
          "type": "string[]"
        },
        {
          "indexed": true,
          "name": "windowsKey",
          "type": "bytes32"
        }
      ],
      "name": "pendingReportGenerated",
      "type": "event"
    },
    {
      "constant": false,
      "inputs": [
        {
          "name": "_behavior",
          "type": "string[]"
        },
        {
          "name": "_windowsKey",
          "type": "bytes32"
        }
      ],
      "name": "reportPendingSoftwareBehavior",
      "outputs": [],
      "payable": false,
      "stateMutability": "nonpayable",
      "type": "function"
    },
    {
      "constant": false,
      "inputs": [
        {
          "name": "approve",
          "type": "bool"
        },
        {
          "name": "pendingReportID",
          "type": "uint256"
        }
      ],
      "name": "voteOnPendingReport",
      "outputs": [],
      "payable": false,
      "stateMutability": "nonpayable",
      "type": "function"
    },
    {
      "constant": false,
      "inputs": [
        {
          "name": "_key",
          "type": "bytes32"
        }
      ],
      "name": "registerKey",
      "outputs": [],
      "payable": false,
      "stateMutability": "nonpayable",
      "type": "function"
    },
    {
      "constant": false,
      "inputs": [
        {
          "name": "_key",
          "type": "bytes32"
        }
      ],
      "name": "authorizeUser",
      "outputs": [],
      "payable": false,
      "stateMutability": "nonpayable",
      "type": "function"
    },
    {
      "constant": false,
      "inputs": [],
      "name": "revokeAuthorization",
      "outputs": [],
      "payable": false,
      "stateMutability": "nonpayable",
      "type": "function"
    },
    {
      "constant": true,
      "inputs": [],
      "name": "retrieveReportOverview",
      "outputs": [
        {
          "name": "",
          "type": "uint256"
        },
        {
          "name": "",
          "type": "uint256"
        },
        {
          "name": "",
          "type": "uint256"
        }
      ],
      "payable": false,
      "stateMutability": "view",
      "type": "function"
    },
    {
      "constant": false,
      "inputs": [],
      "name": "incrementExecutingSoftware",
      "outputs": [],
      "payable": false,
      "stateMutability": "nonpayable",
      "type": "function"
    },
    {
      "constant": false,
      "inputs": [],
      "name": "decrementExecutingSoftware",
      "outputs": [],
      "payable": false,
      "stateMutability": "nonpayable",
      "type": "function"
    }
  ],
  "bytecode": "0x60806040523480156200001157600080fd5b506040516200232338038062002323833981018060405262000037919081019062000407565b33600260006101000a81548173ffffffffffffffffffffffffffffffffffffffff021916908373ffffffffffffffffffffffffffffffffffffffff160217905550816000908051906020019062000090929190620000b2565b508060019080519060200190620000a992919062000139565b50505062000561565b828054600181600116156101000203166002900490600052602060002090601f016020900481019282601f10620000f557805160ff191683800117855562000126565b8280016001018555821562000126579182015b828111156200012557825182559160200191906001019062000108565b5b509050620001359190620001a0565b5090565b8280548282559060005260206000209081019282156200018d579160200282015b828111156200018c5782518290805190602001906200017b929190620001c8565b50916020019190600101906200015a565b5b5090506200019c91906200024f565b5090565b620001c591905b80821115620001c1576000816000905550600101620001a7565b5090565b90565b828054600181600116156101000203166002900490600052602060002090601f016020900481019282601f106200020b57805160ff19168380011785556200023c565b828001600101855582156200023c579182015b828111156200023b5782518255916020019190600101906200021e565b5b5090506200024b9190620001a0565b5090565b6200027d91905b808211156200027957600081816200026f919062000280565b5060010162000256565b5090565b90565b50805460018160011615610100020316600290046000825580601f10620002a85750620002c9565b601f016020900490600052602060002090810190620002c89190620001a0565b5b50565b600082601f8301121515620002e057600080fd5b8151620002f7620002f182620004a8565b6200047a565b9150818183526020840193506020810190508360005b838110156200034157815186016200032688826200034b565b8452602084019350602083019250506001810190506200030d565b5050505092915050565b600082601f83011215156200035f57600080fd5b8151620003766200037082620004d1565b6200047a565b915080825260208301602083018583830111156200039357600080fd5b620003a08382846200052b565b50505092915050565b600082601f8301121515620003bd57600080fd5b8151620003d4620003ce82620004fe565b6200047a565b91508082526020830160208301858383011115620003f157600080fd5b620003fe8382846200052b565b50505092915050565b600080604083850312156200041b57600080fd5b600083015167ffffffffffffffff8111156200043657600080fd5b6200044485828601620003a9565b925050602083015167ffffffffffffffff8111156200046257600080fd5b6200047085828601620002cc565b9150509250929050565b6000604051905081810181811067ffffffffffffffff821117156200049e57600080fd5b8060405250919050565b600067ffffffffffffffff821115620004c057600080fd5b602082029050602081019050919050565b600067ffffffffffffffff821115620004e957600080fd5b601f19601f8301169050602081019050919050565b600067ffffffffffffffff8211156200051657600080fd5b601f19601f8301169050602081019050919050565b60005b838110156200054b5780820151818401526020810190506200052e565b838111156200055b576000848401525b50505050565b611db280620005716000396000f3fe6080604052600436106100a9576000357c0100000000000000000000000000000000000000000000000000000000900480632d283db5146100ae57806337b05812146100eb57806358886dba146101025780637950055e1461013f5780637dae39451461016a57806387dd3e71146101935780638fa48007146101bc5780639628a669146101d3578063c72ac8be146101fc578063cd80557e14610229578063cf75353a14610252575b600080fd5b3480156100ba57600080fd5b506100d560048036036100d0919081019061152f565b610269565b6040516100e29190611a35565b60405180910390f35b3480156100f757600080fd5b50610100610331565b005b34801561010e57600080fd5b5061012960048036036101249190810190611506565b610416565b6040516101369190611a35565b60405180910390f35b34801561014b57600080fd5b506101546104d1565b6040516101619190611a35565b60405180910390f35b34801561017657600080fd5b50610191600480360361018c91908101906114dd565b61056f565b005b34801561019f57600080fd5b506101ba60048036036101b5919081019061144d565b61074c565b005b3480156101c857600080fd5b506101d161094c565b005b3480156101df57600080fd5b506101fa60048036036101f591908101906114a1565b6109e8565b005b34801561020857600080fd5b50610211610d3c565b60405161022093929190611bd7565b60405180910390f35b34801561023557600080fd5b50610250600480360361024b91908101906114dd565b610d55565b005b34801561025e57600080fd5b50610267610ec2565b005b60066020528160005260406000208181548110151561028457fe5b90600052602060002001600091509150508054600181600116156101000203166002900480601f0160208091040260200160405190810160405280929190818152602001828054600181600116156101000203166002900480156103295780601f106102fe57610100808354040283529160200191610329565b820191906000526020600020905b81548152906001019060200180831161030c57829003601f168201915b505050505081565b6000600102600360003373ffffffffffffffffffffffffffffffffffffffff1673ffffffffffffffffffffffffffffffffffffffff16815260200190815260200160002054141515156103b9576040517f08c379a00000000000000000000000000000000000000000000000000000000081526004016103b090611b97565b60405180910390fd5b6000600102600360003373ffffffffffffffffffffffffffffffffffffffff1673ffffffffffffffffffffffffffffffffffffffff16815260200190815260200160002081905550600b6000815480929190600190039190505550565b60018181548110151561042557fe5b906000526020600020016000915090508054600181600116156101000203166002900480601f0160208091040260200160405190810160405280929190818152602001828054600181600116156101000203166002900480156104c95780601f1061049e576101008083540402835291602001916104c9565b820191906000526020600020905b8154815290600101906020018083116104ac57829003601f168201915b505050505081565b60008054600181600116156101000203166002900480601f0160208091040260200160405190810160405280929190818152602001828054600181600116156101000203166002900480156105675780601f1061053c57610100808354040283529160200191610567565b820191906000526020600020905b81548152906001019060200180831161054a57829003601f168201915b505050505081565b600260009054906101000a900473ffffffffffffffffffffffffffffffffffffffff1673ffffffffffffffffffffffffffffffffffffffff163373ffffffffffffffffffffffffffffffffffffffff1614151515610602576040517f08c379a00000000000000000000000000000000000000000000000000000000081526004016105f990611b17565b60405180910390fd5b6005600082815260200190815260200160002060009054906101000a900460ff161515610664576040517f08c379a000000000000000000000000000000000000000000000000000000000815260040161065b90611a57565b60405180910390fd5b6004600082815260200190815260200160002060009054906101000a900460ff161515156106c7576040517f08c379a00000000000000000000000000000000000000000000000000000000081526004016106be90611bb7565b60405180910390fd5b80600360003373ffffffffffffffffffffffffffffffffffffffff1673ffffffffffffffffffffffffffffffffffffffff1681526020019081526020016000208190555060016004600083815260200190815260200160002060006101000a81548160ff021916908315150217905550600b6000815480929190600101919050555050565b6000600102600360003373ffffffffffffffffffffffffffffffffffffffff1673ffffffffffffffffffffffffffffffffffffffff16815260200190815260200160002054141515156107d4576040517f08c379a00000000000000000000000000000000000000000000000000000000081526004016107cb90611b97565b60405180910390fd5b6000825111151561081a576040517f08c379a000000000000000000000000000000000000000000000000000000000815260040161081190611b37565b60405180910390fd5b60006001028114151515610863576040517f08c379a000000000000000000000000000000000000000000000000000000000815260040161085a90611ad7565b60405180910390fd5b8160076000600d548152602001908152602001600020908051906020019061088c9291906110d5565b503360086000600d54815260200190815260200160002060006101000a81548173ffffffffffffffffffffffffffffffffffffffff021916908373ffffffffffffffffffffffffffffffffffffffff160217905550600d60008154809291906001019190505550803373ffffffffffffffffffffffffffffffffffffffff166001600d54037ff714bf6446672ac0095d73814f5195a59f499366df77ebe5489f2c027640f5908560405161094091906119f1565b60405180910390a45050565b6000600102600360003373ffffffffffffffffffffffffffffffffffffffff1673ffffffffffffffffffffffffffffffffffffffff16815260200190815260200160002054141515156109d4576040517f08c379a00000000000000000000000000000000000000000000000000000000081526004016109cb90611b97565b60405180910390fd5b600f60008154809291906001019190505550565b6000600102600360003373ffffffffffffffffffffffffffffffffffffffff1673ffffffffffffffffffffffffffffffffffffffff1681526020019081526020016000205414151515610a70576040517f08c379a0000000000000000000000000000000000000000000000000000000008152600401610a6790611b97565b60405180910390fd5b60006007600083815260200190815260200160002080549050111515610acb576040517f08c379a0000000000000000000000000000000000000000000000000000000008152600401610ac290611b77565b60405180910390fd5b3373ffffffffffffffffffffffffffffffffffffffff166008600083815260200190815260200160002060009054906101000a900473ffffffffffffffffffffffffffffffffffffffff1673ffffffffffffffffffffffffffffffffffffffff1614151515610b6f576040517f08c379a0000000000000000000000000000000000000000000000000000000008152600401610b6690611b57565b60405180910390fd5b60006006600083815260200190815260200160002080549050141515610bca576040517f08c379a0000000000000000000000000000000000000000000000000000000008152600401610bc190611a77565b60405180910390fd5b60011515600a600083815260200190815260200160002060003373ffffffffffffffffffffffffffffffffffffffff1673ffffffffffffffffffffffffffffffffffffffff16815260200190815260200160002060009054906101000a900460ff16151514151515610c71576040517f08c379a0000000000000000000000000000000000000000000000000000000008152600401610c6890611a97565b60405180910390fd5b6001600a600083815260200190815260200160002060003373ffffffffffffffffffffffffffffffffffffffff1673ffffffffffffffffffffffffffffffffffffffff16815260200190815260200160002060006101000a81548160ff0219169083151502179055508115610d385760096000828152602001908152602001600020600081548092919060010191905055506002600f54811515610d1157fe5b046009600083815260200190815260200160002054101515610d3757610d3681610f5f565b5b5b5050565b6000806000600b54600c54600e54925092509250909192565b600260009054906101000a900473ffffffffffffffffffffffffffffffffffffffff1673ffffffffffffffffffffffffffffffffffffffff163373ffffffffffffffffffffffffffffffffffffffff16141515610de7576040517f08c379a0000000000000000000000000000000000000000000000000000000008152600401610dde90611af7565b60405180910390fd5b60006001028114151515610e30576040517f08c379a0000000000000000000000000000000000000000000000000000000008152600401610e2790611a57565b60405180910390fd5b6005600082815260200190815260200160002060009054906101000a900460ff16151515610e93576040517f08c379a0000000000000000000000000000000000000000000000000000000008152600401610e8a90611ab7565b60405180910390fd5b60016005600083815260200190815260200160002060006101000a81548160ff02191690831515021790555050565b6000600102600360003373ffffffffffffffffffffffffffffffffffffffff1673ffffffffffffffffffffffffffffffffffffffff1681526020019081526020016000205414151515610f4a576040517f08c379a0000000000000000000000000000000000000000000000000000000008152600401610f4190611b97565b60405180910390fd5b600f6000815480929190600190039190505550565b6000600102600360003373ffffffffffffffffffffffffffffffffffffffff1673ffffffffffffffffffffffffffffffffffffffff1681526020019081526020016000205414151515610fe7576040517f08c379a0000000000000000000000000000000000000000000000000000000008152600401610fde90611b97565b60405180910390fd5b60008090506001805490506007600084815260200190815260200160002080549050111561102657600e60008154809291906001019190505550600190505b600760008381526020019081526020016000206006600084815260200190815260200160002090805461105a929190611135565b50600c600081548092919060010191905055508015153373ffffffffffffffffffffffffffffffffffffffff16837ff1514fec8c86870597e15337c3e88975f985815e2c92e8b74993e8dca90a9bfd600760008781526020019081526020016000206040516110c99190611a13565b60405180910390a45050565b828054828255906000526020600020908101928215611124579160200282015b828111156111235782518290805190602001906111139291906111a5565b50916020019190600101906110f5565b5b5090506111319190611225565b5090565b8280548282559060005260206000209081019282156111945760005260206000209182015b828111156111935782829080546001816001161561010002031660029004611183929190611251565b509160010191906001019061115a565b5b5090506111a19190611225565b5090565b828054600181600116156101000203166002900490600052602060002090601f016020900481019282601f106111e657805160ff1916838001178555611214565b82800160010185558215611214579182015b828111156112135782518255916020019190600101906111f8565b5b50905061122191906112d8565b5090565b61124e91905b8082111561124a576000818161124191906112fd565b5060010161122b565b5090565b90565b828054600181600116156101000203166002900490600052602060002090601f016020900481019282601f1061128a57805485556112c7565b828001600101855582156112c757600052602060002091601f016020900482015b828111156112c65782548255916001019190600101906112ab565b5b5090506112d491906112d8565b5090565b6112fa91905b808211156112f65760008160009055506001016112de565b5090565b90565b50805460018160011615610100020316600290046000825580601f106113235750611342565b601f01602090049060005260206000209081019061134191906112d8565b5b50565b600082601f830112151561135857600080fd5b813561136b61136682611c3b565b611c0e565b9150818183526020840193506020810190508360005b838110156113b1578135860161139788826113e3565b845260208401935060208301925050600181019050611381565b5050505092915050565b60006113c78235611d05565b905092915050565b60006113db8235611d11565b905092915050565b600082601f83011215156113f657600080fd5b813561140961140482611c63565b611c0e565b9150808252602083016020830185838301111561142557600080fd5b611430838284611d25565b50505092915050565b60006114458235611d1b565b905092915050565b6000806040838503121561146057600080fd5b600083013567ffffffffffffffff81111561147a57600080fd5b61148685828601611345565b9250506020611497858286016113cf565b9150509250929050565b600080604083850312156114b457600080fd5b60006114c2858286016113bb565b92505060206114d385828601611439565b9150509250929050565b6000602082840312156114ef57600080fd5b60006114fd848285016113cf565b91505092915050565b60006020828403121561151857600080fd5b600061152684828501611439565b91505092915050565b6000806040838503121561154257600080fd5b600061155085828601611439565b925050602061156185828601611439565b9150509250929050565b600061157682611cc0565b8084526020840193508360208202850161158f85611c8f565b60005b848110156115c85783830388526115aa838351611646565b92506115b582611ce1565b9150602088019750600181019050611592565b508196508694505050505092915050565b60006115e482611ccb565b808452602084019350836020820285016115fd85611c9c565b60005b84811015611635578383038852611617838361167c565b925061162282611cee565b9150602088019750600181019050611600565b508196508694505050505092915050565b600061165182611cd6565b808452611665816020860160208601611d34565b61166e81611d67565b602085010191505092915050565b60008154600181166000811461169957600181146116b9576116fa565b607f600283041680865260ff1983166020870152604086019350506116fa565b600282048086526020860195506116cf85611cae565b60005b828110156116f1578154818901526001820191506020810190506116d2565b80880195505050505b505092915050565b6000600b82527f496e76616c6964206b65790000000000000000000000000000000000000000006020830152604082019050919050565b6000601782527f5265706f727420616c726561647920617070726f7665640000000000000000006020830152604082019050919050565b6000600d82527f416c726561647920766f746564000000000000000000000000000000000000006020830152604082019050919050565b6000601682527f4b657920616c72656164792072656769737465726564000000000000000000006020830152604082019050919050565b6000601782527f57696e646f7773204b65792063616e6e6f7420626520300000000000000000006020830152604082019050919050565b6000602e82527f4f6e6c792074686520636f6e7472616374206f776e65722063616e2063616c6c60208301527f20746869732066756e6374696f6e0000000000000000000000000000000000006040830152606082019050919050565b6000602382527f4e6f7420617661696c61626c6520746f2074686520636f6e7472616374206f7760208301527f6e657200000000000000000000000000000000000000000000000000000000006040830152606082019050919050565b6000601e82527f4265686176696f722061727261792063616e6e6f7420626520656d70747900006020830152604082019050919050565b6000601182527f4f776e65722063616e6e6f7420766f74650000000000000000000000000000006020830152604082019050919050565b6000601d82527f50656e64696e67207265706f727420646f6573206e6f742065786973740000006020830152604082019050919050565b6000601b82527f596f7520617265206e6f74206120736f667477617265207573657200000000006020830152604082019050919050565b6000601082527f4b657920616c72656164792075736564000000000000000000000000000000006020830152604082019050919050565b6119eb81611cfb565b82525050565b60006020820190508181036000830152611a0b818461156b565b905092915050565b60006020820190508181036000830152611a2d81846115d9565b905092915050565b60006020820190508181036000830152611a4f8184611646565b905092915050565b60006020820190508181036000830152611a7081611702565b9050919050565b60006020820190508181036000830152611a9081611739565b9050919050565b60006020820190508181036000830152611ab081611770565b9050919050565b60006020820190508181036000830152611ad0816117a7565b9050919050565b60006020820190508181036000830152611af0816117de565b9050919050565b60006020820190508181036000830152611b1081611815565b9050919050565b60006020820190508181036000830152611b3081611872565b9050919050565b60006020820190508181036000830152611b50816118cf565b9050919050565b60006020820190508181036000830152611b7081611906565b9050919050565b60006020820190508181036000830152611b908161193d565b9050919050565b60006020820190508181036000830152611bb081611974565b9050919050565b60006020820190508181036000830152611bd0816119ab565b9050919050565b6000606082019050611bec60008301866119e2565b611bf960208301856119e2565b611c0660408301846119e2565b949350505050565b6000604051905081810181811067ffffffffffffffff82111715611c3157600080fd5b8060405250919050565b600067ffffffffffffffff821115611c5257600080fd5b602082029050602081019050919050565b600067ffffffffffffffff821115611c7a57600080fd5b601f19601f8301169050602081019050919050565b6000602082019050919050565b60008160005260206000209050919050565b60008160005260206000209050919050565b600081519050919050565b600081549050919050565b600081519050919050565b6000602082019050919050565b6000600182019050919050565b6000819050919050565b60008115159050919050565b6000819050919050565b6000819050919050565b82818337600083830152505050565b60005b83811015611d52578082015181840152602081019050611d37565b83811115611d61576000848401525b50505050565b6000601f19601f830116905091905056fea265627a7a723058205051aaa7dec149633caaea427d2c844bc4d9f13bc2782d1fef9f7cbca536a2476c6578706572696d656e74616cf50037",
  "source": "// SPDX-License-Identifier: MIT\r\npragma solidity >=0.4.22 <0.9.0;\r\npragma experimental ABIEncoderV2;\r\n\r\n/**\r\n * @title SCC - Software Compliance Contract\r\n * @dev Manages Software Permissions and Binary Monitoring\r\n */\r\n\r\n/**\r\n * Requirements:\r\n *\r\n * Owner (Company):\r\n *  -> Can submit permissions and binary hash on creation\r\n *  -> Can register keys for software user logins\r\n *\r\n * Software Users:\r\n *  -> Can submit a report for voting\r\n *  -> Can vote on pending reports to publish \r\n *  -> Can revoke authorization upon software uninstallation\r\n *  -> Can link themselves to a valid key upon software installation (login)\r\n *\r\n *  Everyone:\r\n *  -> Consults Binary Hash and Permissions\r\n *  -> Views reports with behaviors.\r\n *  -> Accesses an overview of all reports.\r\n */\r\n\r\ncontract SCC {\r\n    // Binary hash representing the software's unique identifier\r\n    string public binaryHash;\r\n\r\n    // Array storing the list of permissions associated with the software\r\n    string[] public permissions;\r\n\r\n    // Address of the contract owner, typically the company managing the software\r\n    address private owner;\r\n\r\n    /* MAPPING */\r\n    //  User addresses to their respective access keys for software validation\r\n    mapping(address => bytes32) private userToKeys;\r\n    // Keys to used or not used\r\n    mapping(bytes32 => bool) private usedKeys;\r\n    // List registered keys\r\n    mapping(bytes32 => bool) private registeredKeys;\r\n    // Report IDs to arrays of software behavior descriptions\r\n    mapping(uint256 => string[]) public reports;\r\n    mapping(uint256 => string[]) private pendingReports;\r\n    mapping(uint256 => address) private reportToOwner;\r\n    // Maps each pending report ID to the count of approval votes.\r\n    mapping(uint256 => uint256) private pendingReportToApprovalVotes;\r\n    // Tracks whether a user has voted on a specific pending report ID.\r\n    mapping(uint256 => mapping(address => bool)) private userHasVotedOnPendingReport;\r\n\r\n    /* COUNTER */\r\n    //  for active software users\r\n    uint256 private activateUsers;\r\n    //  for generated reports\r\n    uint256 private reportCount;\r\n    //  for pending reports\r\n    uint256 private pendingReportCount;\r\n    // For reporting permissions that have been violated\r\n    uint256 private violatedPermissionsCount;\r\n    // for user it's executing right now\r\n    uint256 private executingSoftware;\r\n\r\n    // Event emitted when a new software behavior report is generated\r\n    event ReportGenerated(\r\n        uint256 indexed reportId, // Unique identifier for the report\r\n        address indexed user, // Address of the user who generated the report\r\n        string[] reportSoftwareBehavior, // Array of behaviors reported by the user\r\n        bool indexed violated //Flag indicating if permissions were violated\r\n    );\r\n\r\n    //Event emitted when a pending software behavior report is generated\r\n    event pendingReportGenerated(\r\n        uint256 indexed reportId, // Unique identifier for the report\r\n        address indexed user, // Address of the user who generated the report\r\n        string[] reportSoftwareBehavior, // Array of behaviors reported by the user\r\n        bytes32 indexed windowsKey // windows key associated with this report\r\n    );\r\n\r\n    /* MODIFIERS */\r\n    // Restrict access to owner-only functions\r\n    modifier onlyOwner() {\r\n        require(msg.sender == owner, \"Only the contract owner can call this function\");\r\n        _;\r\n    }\r\n\r\n    //Restrict access to functions not allowed for the contract owner.\r\n    modifier onlyNotOwner() {\r\n        require(msg.sender != owner, \"Not available to the contract owner\");\r\n        _;\r\n    }\r\n\r\n    //Restrict access to functions allowed only for registered software users.\r\n    modifier onlySoftwareUser() {\r\n        require(userToKeys[msg.sender] != bytes32(0), \"You are not a software user\");\r\n        _;\r\n    }\r\n\r\n    // Constructor to initialize the contract with binary hash and permissions\r\n    constructor(string memory _binaryHash, string[] memory _permissions) public {\r\n        owner = msg.sender;\r\n        binaryHash = _binaryHash;\r\n        permissions = _permissions;\r\n    }\r\n\r\n    // allow software user to create a pending report\r\n    function reportPendingSoftwareBehavior(string[] memory _behavior, bytes32 _windowsKey) public onlySoftwareUser{\r\n        require(_behavior.length > 0, \"Behavior array cannot be empty\");\r\n        require(_windowsKey != bytes32(0), \"Windows Key cannot be 0\");\r\n        pendingReports[pendingReportCount] = _behavior;\r\n        reportToOwner[pendingReportCount] = msg.sender;\r\n        pendingReportCount++;\r\n        emit pendingReportGenerated(pendingReportCount - 1, msg.sender, _behavior, _windowsKey);\r\n    }\r\n\r\n    //// Allows software users to vote on pending reports until 50% + 1 approve the report.\r\n    function voteOnPendingReport(bool approve, uint256 pendingReportID) public onlySoftwareUser{\r\n        require(pendingReports[pendingReportID].length > 0, \"Pending report does not exist\");\r\n        require(reportToOwner[pendingReportID] != msg.sender, \"Owner cannot vote\");\r\n        require(reports[pendingReportID].length == 0, \"Report already approved\");\r\n        require(userHasVotedOnPendingReport[pendingReportID][msg.sender] != true, \"Already voted\");\r\n        userHasVotedOnPendingReport[pendingReportID][msg.sender] = true;\r\n        if(approve){\r\n            pendingReportToApprovalVotes[pendingReportID]++;\r\n            if(pendingReportToApprovalVotes[pendingReportID] >= executingSoftware / 2){\r\n                approvePendingReport(pendingReportID);\r\n            }\r\n        }\r\n    }\r\n\r\n    // Function for contract to approve a new report\r\n    function approvePendingReport(uint256 pendingReportID) internal onlySoftwareUser{\r\n        bool violated = false;\r\n        if (pendingReports[pendingReportID].length > permissions.length) {\r\n            violatedPermissionsCount++;\r\n            violated = true;\r\n        }\r\n        reports[pendingReportID] = pendingReports[pendingReportID];\r\n        reportCount++;\r\n\r\n        // Emit event to notify about the new report generated\r\n        emit ReportGenerated(pendingReportID, msg.sender, pendingReports[pendingReportID], violated);\r\n    }\r\n\r\n    // Key example: 0x1234567890abcdef1234567890abcdef1234567890abcdef1234567890abcdef\r\n    // Function to register a new valid key and not used\r\n    function registerKey(bytes32 _key) public onlyOwner {\r\n        require(_key != bytes32(0), \"Invalid key\");\r\n        require(!registeredKeys[_key], \"Key already registered\");\r\n        registeredKeys[_key] = true;\r\n    }\r\n\r\n    // Function to a software user authorize yourself\r\n    function authorizeUser(bytes32 _key) public onlyNotOwner {\r\n        require(registeredKeys[_key], \"Invalid key\");\r\n        require(!usedKeys[_key], \"Key already used\");\r\n        userToKeys[msg.sender] = _key;\r\n        usedKeys[_key] = true;\r\n        activateUsers++;\r\n    }\r\n\r\n    // Function for software users to revoke their own authorization\r\n    function revokeAuthorization() public onlySoftwareUser {\r\n        userToKeys[msg.sender] = bytes32(0);\r\n        activateUsers--;\r\n    }\r\n\r\n    // Function to return a report overview\r\n    function retrieveReportOverview() public view returns (uint256, uint256, uint256){\r\n        return (activateUsers, reportCount, violatedPermissionsCount);\r\n    }\r\n\r\n    function incrementExecutingSoftware() public onlySoftwareUser {\r\n        executingSoftware++;\r\n    }\r\n\r\n    function decrementExecutingSoftware() public onlySoftwareUser {\r\n        executingSoftware--;\r\n    }\r\n}",
  "sourcePath": "C:\\Users\\hyago\\OneDrive\\rea de Trabalho\\Mestrado\\SCC\\truffle-contract\\contracts\\SCC.sol",
  "compiler": {
    "name": "solc",
    "version": "0.5.1+commit.c8a2cb62.Emscripten.clang"
  },
  "schemaVersion": "3.4.16",
  "updatedAt": "2024-07-26T16:56:12.063Z",
  "devdoc": {
    "methods": {}
  },
  "userdoc": {
    "methods": {
      "voteOnPendingReport(bool,uint256)": {
        "notice": "/ Allows software users to vote on pending reports until 50% + 1 approve the report."
      }
    },
    "notice": "Requirements:\r  * Owner (Company):\r -> Can submit permissions and binary hash on creation\r -> Can register keys for software user logins\r  * Software Users:\r -> Can submit a report for voting\r -> Can vote on pending reports to publish \r -> Can revoke authorization upon software uninstallation\r -> Can link themselves to a valid key upon software installation (login)\r  *  Everyone:\r -> Consults Binary Hash and Permissions\r -> Views reports with behaviors.\r -> Accesses an overview of all reports.\r"
  }
}