{
  "contractName": "SCC",
  "abi": [
    {
      "constant": true,
      "inputs": [
        {
          "name": "",
          "type": "uint256"
        },
        {
          "name": "",
          "type": "uint256"
        }
      ],
      "name": "reports",
      "outputs": [
        {
          "name": "",
          "type": "string"
        }
      ],
      "payable": false,
      "stateMutability": "view",
      "type": "function"
    },
    {
      "constant": true,
      "inputs": [
        {
          "name": "",
          "type": "uint256"
        }
      ],
      "name": "permissions",
      "outputs": [
        {
          "name": "",
          "type": "string"
        }
      ],
      "payable": false,
      "stateMutability": "view",
      "type": "function"
    },
    {
      "constant": true,
      "inputs": [],
      "name": "binaryHash",
      "outputs": [
        {
          "name": "",
          "type": "string"
        }
      ],
      "payable": false,
      "stateMutability": "view",
      "type": "function"
    },
    {
      "inputs": [
        {
          "name": "_binaryHash",
          "type": "string"
        },
        {
          "name": "_permissions",
          "type": "string[]"
        }
      ],
      "payable": false,
      "stateMutability": "nonpayable",
      "type": "constructor"
    },
    {
      "anonymous": false,
      "inputs": [
        {
          "indexed": true,
          "name": "reportId",
          "type": "uint256"
        },
        {
          "indexed": true,
          "name": "user",
          "type": "address"
        },
        {
          "indexed": false,
          "name": "reportSoftwareBehavior",
          "type": "string[]"
        },
        {
          "indexed": true,
          "name": "violated",
          "type": "bool"
        }
      ],
      "name": "ReportGenerated",
      "type": "event"
    },
    {
      "anonymous": false,
      "inputs": [
        {
          "indexed": true,
          "name": "reportId",
          "type": "uint256"
        },
        {
          "indexed": true,
          "name": "user",
          "type": "address"
        },
        {
          "indexed": false,
          "name": "reportSoftwareBehavior",
          "type": "string[]"
        },
        {
          "indexed": true,
          "name": "windowsKey",
          "type": "bytes32"
        }
      ],
      "name": "pendingReportGenerated",
      "type": "event"
    },
    {
      "constant": false,
      "inputs": [
        {
          "name": "_behavior",
          "type": "string[]"
        },
        {
          "name": "_windowsKey",
          "type": "bytes32"
        }
      ],
      "name": "reportPendingSoftwareBehavior",
      "outputs": [],
      "payable": false,
      "stateMutability": "nonpayable",
      "type": "function"
    },
    {
      "constant": false,
      "inputs": [
        {
          "name": "approve",
          "type": "bool"
        },
        {
          "name": "pendingReportID",
          "type": "uint256"
        }
      ],
      "name": "voteOnPendingReport",
      "outputs": [],
      "payable": false,
      "stateMutability": "nonpayable",
      "type": "function"
    },
    {
      "constant": false,
      "inputs": [
        {
          "name": "_key",
          "type": "bytes32"
        }
      ],
      "name": "registerKey",
      "outputs": [],
      "payable": false,
      "stateMutability": "nonpayable",
      "type": "function"
    },
    {
      "constant": false,
      "inputs": [
        {
          "name": "_key",
          "type": "bytes32"
        }
      ],
      "name": "authorizeUser",
      "outputs": [],
      "payable": false,
      "stateMutability": "nonpayable",
      "type": "function"
    },
    {
      "constant": false,
      "inputs": [],
      "name": "revokeAuthorization",
      "outputs": [],
      "payable": false,
      "stateMutability": "nonpayable",
      "type": "function"
    },
    {
      "constant": true,
      "inputs": [],
      "name": "retrieveReportOverview",
      "outputs": [
        {
          "name": "",
          "type": "uint256"
        },
        {
          "name": "",
          "type": "uint256"
        },
        {
          "name": "",
          "type": "uint256"
        }
      ],
      "payable": false,
      "stateMutability": "view",
      "type": "function"
    }
  ],
  "bytecode": "0x60806040523480156200001157600080fd5b5060405162001fa438038062001fa4833981018060405262000037919081019062000407565b33600260006101000a81548173ffffffffffffffffffffffffffffffffffffffff021916908373ffffffffffffffffffffffffffffffffffffffff160217905550816000908051906020019062000090929190620000b2565b508060019080519060200190620000a992919062000139565b50505062000561565b828054600181600116156101000203166002900490600052602060002090601f016020900481019282601f10620000f557805160ff191683800117855562000126565b8280016001018555821562000126579182015b828111156200012557825182559160200191906001019062000108565b5b509050620001359190620001a0565b5090565b8280548282559060005260206000209081019282156200018d579160200282015b828111156200018c5782518290805190602001906200017b929190620001c8565b50916020019190600101906200015a565b5b5090506200019c91906200024f565b5090565b620001c591905b80821115620001c1576000816000905550600101620001a7565b5090565b90565b828054600181600116156101000203166002900490600052602060002090601f016020900481019282601f106200020b57805160ff19168380011785556200023c565b828001600101855582156200023c579182015b828111156200023b5782518255916020019190600101906200021e565b5b5090506200024b9190620001a0565b5090565b6200027d91905b808211156200027957600081816200026f919062000280565b5060010162000256565b5090565b90565b50805460018160011615610100020316600290046000825580601f10620002a85750620002c9565b601f016020900490600052602060002090810190620002c89190620001a0565b5b50565b600082601f8301121515620002e057600080fd5b8151620002f7620002f182620004a8565b6200047a565b9150818183526020840193506020810190508360005b838110156200034157815186016200032688826200034b565b8452602084019350602083019250506001810190506200030d565b5050505092915050565b600082601f83011215156200035f57600080fd5b8151620003766200037082620004d1565b6200047a565b915080825260208301602083018583830111156200039357600080fd5b620003a08382846200052b565b50505092915050565b600082601f8301121515620003bd57600080fd5b8151620003d4620003ce82620004fe565b6200047a565b91508082526020830160208301858383011115620003f157600080fd5b620003fe8382846200052b565b50505092915050565b600080604083850312156200041b57600080fd5b600083015167ffffffffffffffff8111156200043657600080fd5b6200044485828601620003a9565b925050602083015167ffffffffffffffff8111156200046257600080fd5b6200047085828601620002cc565b9150509250929050565b6000604051905081810181811067ffffffffffffffff821117156200049e57600080fd5b8060405250919050565b600067ffffffffffffffff821115620004c057600080fd5b602082029050602081019050919050565b600067ffffffffffffffff821115620004e957600080fd5b601f19601f8301169050602081019050919050565b600067ffffffffffffffff8211156200051657600080fd5b601f19601f8301169050602081019050919050565b60005b838110156200054b5780820151818401526020810190506200052e565b838111156200055b576000848401525b50505050565b611a3380620005716000396000f3fe608060405260043610610093576000357c0100000000000000000000000000000000000000000000000000000000900480632d283db51461009857806337b05812146100d557806358886dba146100ec5780637950055e146101295780637dae39451461015457806387dd3e711461017d5780639628a669146101a6578063c72ac8be146101cf578063cd80557e146101fc575b600080fd5b3480156100a457600080fd5b506100bf60048036036100ba919081019061125e565b610225565b6040516100cc91906116f6565b60405180910390f35b3480156100e157600080fd5b506100ea6102ed565b005b3480156100f857600080fd5b50610113600480360361010e9190810190611235565b6103d2565b60405161012091906116f6565b60405180910390f35b34801561013557600080fd5b5061013e61048d565b60405161014b91906116f6565b60405180910390f35b34801561016057600080fd5b5061017b6004803603610176919081019061120c565b61052b565b005b34801561018957600080fd5b506101a4600480360361019f919081019061117c565b610708565b005b3480156101b257600080fd5b506101cd60048036036101c891908101906111d0565b6108b4565b005b3480156101db57600080fd5b506101e4610b08565b6040516101f393929190611858565b60405180910390f35b34801561020857600080fd5b50610223600480360361021e919081019061120c565b610b21565b005b60066020528160005260406000208181548110151561024057fe5b90600052602060002001600091509150508054600181600116156101000203166002900480601f0160208091040260200160405190810160405280929190818152602001828054600181600116156101000203166002900480156102e55780601f106102ba576101008083540402835291602001916102e5565b820191906000526020600020905b8154815290600101906020018083116102c857829003601f168201915b505050505081565b6000600102600360003373ffffffffffffffffffffffffffffffffffffffff1673ffffffffffffffffffffffffffffffffffffffff1681526020019081526020016000205414151515610375576040517f08c379a000000000000000000000000000000000000000000000000000000000815260040161036c90611818565b60405180910390fd5b6000600102600360003373ffffffffffffffffffffffffffffffffffffffff1673ffffffffffffffffffffffffffffffffffffffff16815260200190815260200160002081905550600a6000815480929190600190039190505550565b6001818154811015156103e157fe5b906000526020600020016000915090508054600181600116156101000203166002900480601f0160208091040260200160405190810160405280929190818152602001828054600181600116156101000203166002900480156104855780601f1061045a57610100808354040283529160200191610485565b820191906000526020600020905b81548152906001019060200180831161046857829003601f168201915b505050505081565b60008054600181600116156101000203166002900480601f0160208091040260200160405190810160405280929190818152602001828054600181600116156101000203166002900480156105235780601f106104f857610100808354040283529160200191610523565b820191906000526020600020905b81548152906001019060200180831161050657829003601f168201915b505050505081565b600260009054906101000a900473ffffffffffffffffffffffffffffffffffffffff1673ffffffffffffffffffffffffffffffffffffffff163373ffffffffffffffffffffffffffffffffffffffff16141515156105be576040517f08c379a00000000000000000000000000000000000000000000000000000000081526004016105b5906117b8565b60405180910390fd5b6005600082815260200190815260200160002060009054906101000a900460ff161515610620576040517f08c379a000000000000000000000000000000000000000000000000000000000815260040161061790611718565b60405180910390fd5b6004600082815260200190815260200160002060009054906101000a900460ff16151515610683576040517f08c379a000000000000000000000000000000000000000000000000000000000815260040161067a90611838565b60405180910390fd5b80600360003373ffffffffffffffffffffffffffffffffffffffff1673ffffffffffffffffffffffffffffffffffffffff1681526020019081526020016000208190555060016004600083815260200190815260200160002060006101000a81548160ff021916908315150217905550600a6000815480929190600101919050555050565b6000600102600360003373ffffffffffffffffffffffffffffffffffffffff1673ffffffffffffffffffffffffffffffffffffffff1681526020019081526020016000205414151515610790576040517f08c379a000000000000000000000000000000000000000000000000000000000815260040161078790611818565b60405180910390fd5b600082511115156107d6576040517f08c379a00000000000000000000000000000000000000000000000000000000081526004016107cd906117d8565b60405180910390fd5b6000600102811415151561081f576040517f08c379a000000000000000000000000000000000000000000000000000000000815260040161081690611778565b60405180910390fd5b8160076000600c5481526020019081526020016000209080519060200190610848929190610e04565b50600c60008154809291906001019190505550803373ffffffffffffffffffffffffffffffffffffffff166001600c54037ff714bf6446672ac0095d73814f5195a59f499366df77ebe5489f2c027640f590856040516108a891906116b2565b60405180910390a45050565b6000600102600360003373ffffffffffffffffffffffffffffffffffffffff1673ffffffffffffffffffffffffffffffffffffffff168152602001908152602001600020541415151561093c576040517f08c379a000000000000000000000000000000000000000000000000000000000815260040161093390611818565b60405180910390fd5b60006006600083815260200190815260200160002080549050111515610997576040517f08c379a000000000000000000000000000000000000000000000000000000000815260040161098e906117f8565b60405180910390fd5b600115156009600083815260200190815260200160002060003373ffffffffffffffffffffffffffffffffffffffff1673ffffffffffffffffffffffffffffffffffffffff16815260200190815260200160002060009054906101000a900460ff16151514151515610a3e576040517f08c379a0000000000000000000000000000000000000000000000000000000008152600401610a3590611738565b60405180910390fd5b60016009600083815260200190815260200160002060003373ffffffffffffffffffffffffffffffffffffffff1673ffffffffffffffffffffffffffffffffffffffff16815260200190815260200160002060006101000a81548160ff0219169083151502179055508115610b045760086000828152602001908152602001600020600081548092919060010191905055506002600a54811515610ade57fe5b0460086000838152602001908152602001600020541115610b0357610b0281610c8e565b5b5b5050565b6000806000600a54600b54600d54925092509250909192565b600260009054906101000a900473ffffffffffffffffffffffffffffffffffffffff1673ffffffffffffffffffffffffffffffffffffffff163373ffffffffffffffffffffffffffffffffffffffff16141515610bb3576040517f08c379a0000000000000000000000000000000000000000000000000000000008152600401610baa90611798565b60405180910390fd5b60006001028114151515610bfc576040517f08c379a0000000000000000000000000000000000000000000000000000000008152600401610bf390611718565b60405180910390fd5b6005600082815260200190815260200160002060009054906101000a900460ff16151515610c5f576040517f08c379a0000000000000000000000000000000000000000000000000000000008152600401610c5690611758565b60405180910390fd5b60016005600083815260200190815260200160002060006101000a81548160ff02191690831515021790555050565b6000600102600360003373ffffffffffffffffffffffffffffffffffffffff1673ffffffffffffffffffffffffffffffffffffffff1681526020019081526020016000205414151515610d16576040517f08c379a0000000000000000000000000000000000000000000000000000000008152600401610d0d90611818565b60405180910390fd5b600080905060018054905060076000848152602001908152602001600020805490501115610d5557600d60008154809291906001019190505550600190505b6007600083815260200190815260200160002060066000848152602001908152602001600020908054610d89929190610e64565b50600b600081548092919060010191905055508015153373ffffffffffffffffffffffffffffffffffffffff16837ff1514fec8c86870597e15337c3e88975f985815e2c92e8b74993e8dca90a9bfd60076000878152602001908152602001600020604051610df891906116d4565b60405180910390a45050565b828054828255906000526020600020908101928215610e53579160200282015b82811115610e52578251829080519060200190610e42929190610ed4565b5091602001919060010190610e24565b5b509050610e609190610f54565b5090565b828054828255906000526020600020908101928215610ec35760005260206000209182015b82811115610ec25782829080546001816001161561010002031660029004610eb2929190610f80565b5091600101919060010190610e89565b5b509050610ed09190610f54565b5090565b828054600181600116156101000203166002900490600052602060002090601f016020900481019282601f10610f1557805160ff1916838001178555610f43565b82800160010185558215610f43579182015b82811115610f42578251825591602001919060010190610f27565b5b509050610f509190611007565b5090565b610f7d91905b80821115610f795760008181610f70919061102c565b50600101610f5a565b5090565b90565b828054600181600116156101000203166002900490600052602060002090601f016020900481019282601f10610fb95780548555610ff6565b82800160010185558215610ff657600052602060002091601f016020900482015b82811115610ff5578254825591600101919060010190610fda565b5b5090506110039190611007565b5090565b61102991905b8082111561102557600081600090555060010161100d565b5090565b90565b50805460018160011615610100020316600290046000825580601f106110525750611071565b601f0160209004906000526020600020908101906110709190611007565b5b50565b600082601f830112151561108757600080fd5b813561109a611095826118bc565b61188f565b9150818183526020840193506020810190508360005b838110156110e057813586016110c68882611112565b8452602084019350602083019250506001810190506110b0565b5050505092915050565b60006110f68235611986565b905092915050565b600061110a8235611992565b905092915050565b600082601f830112151561112557600080fd5b8135611138611133826118e4565b61188f565b9150808252602083016020830185838301111561115457600080fd5b61115f8382846119a6565b50505092915050565b6000611174823561199c565b905092915050565b6000806040838503121561118f57600080fd5b600083013567ffffffffffffffff8111156111a957600080fd5b6111b585828601611074565b92505060206111c6858286016110fe565b9150509250929050565b600080604083850312156111e357600080fd5b60006111f1858286016110ea565b925050602061120285828601611168565b9150509250929050565b60006020828403121561121e57600080fd5b600061122c848285016110fe565b91505092915050565b60006020828403121561124757600080fd5b600061125584828501611168565b91505092915050565b6000806040838503121561127157600080fd5b600061127f85828601611168565b925050602061129085828601611168565b9150509250929050565b60006112a582611941565b808452602084019350836020820285016112be85611910565b60005b848110156112f75783830388526112d9838351611375565b92506112e482611962565b91506020880197506001810190506112c1565b508196508694505050505092915050565b60006113138261194c565b8084526020840193508360208202850161132c8561191d565b60005b8481101561136457838303885261134683836113ab565b92506113518261196f565b915060208801975060018101905061132f565b508196508694505050505092915050565b600061138082611957565b8084526113948160208601602086016119b5565b61139d816119e8565b602085010191505092915050565b6000815460018116600081146113c857600181146113e857611429565b607f600283041680865260ff198316602087015260408601935050611429565b600282048086526020860195506113fe8561192f565b60005b8281101561142057815481890152600182019150602081019050611401565b80880195505050505b505092915050565b6000600b82527f496e76616c6964206b65790000000000000000000000000000000000000000006020830152604082019050919050565b6000600d82527f416c726561647920766f746564000000000000000000000000000000000000006020830152604082019050919050565b6000601682527f4b657920616c72656164792072656769737465726564000000000000000000006020830152604082019050919050565b6000601782527f57696e646f7773204b65792063616e6e6f7420626520300000000000000000006020830152604082019050919050565b6000602e82527f4f6e6c792074686520636f6e7472616374206f776e65722063616e2063616c6c60208301527f20746869732066756e6374696f6e0000000000000000000000000000000000006040830152606082019050919050565b6000602382527f4e6f7420617661696c61626c6520746f2074686520636f6e7472616374206f7760208301527f6e657200000000000000000000000000000000000000000000000000000000006040830152606082019050919050565b6000601e82527f4265686176696f722061727261792063616e6e6f7420626520656d70747900006020830152604082019050919050565b6000601182527f416c7265616479207075626c69736865640000000000000000000000000000006020830152604082019050919050565b6000601b82527f596f7520617265206e6f74206120736f667477617265207573657200000000006020830152604082019050919050565b6000601082527f4b657920616c72656164792075736564000000000000000000000000000000006020830152604082019050919050565b6116ac8161197c565b82525050565b600060208201905081810360008301526116cc818461129a565b905092915050565b600060208201905081810360008301526116ee8184611308565b905092915050565b600060208201905081810360008301526117108184611375565b905092915050565b6000602082019050818103600083015261173181611431565b9050919050565b6000602082019050818103600083015261175181611468565b9050919050565b600060208201905081810360008301526117718161149f565b9050919050565b60006020820190508181036000830152611791816114d6565b9050919050565b600060208201905081810360008301526117b18161150d565b9050919050565b600060208201905081810360008301526117d18161156a565b9050919050565b600060208201905081810360008301526117f1816115c7565b9050919050565b60006020820190508181036000830152611811816115fe565b9050919050565b6000602082019050818103600083015261183181611635565b9050919050565b600060208201905081810360008301526118518161166c565b9050919050565b600060608201905061186d60008301866116a3565b61187a60208301856116a3565b61188760408301846116a3565b949350505050565b6000604051905081810181811067ffffffffffffffff821117156118b257600080fd5b8060405250919050565b600067ffffffffffffffff8211156118d357600080fd5b602082029050602081019050919050565b600067ffffffffffffffff8211156118fb57600080fd5b601f19601f8301169050602081019050919050565b6000602082019050919050565b60008160005260206000209050919050565b60008160005260206000209050919050565b600081519050919050565b600081549050919050565b600081519050919050565b6000602082019050919050565b6000600182019050919050565b6000819050919050565b60008115159050919050565b6000819050919050565b6000819050919050565b82818337600083830152505050565b60005b838110156119d35780820151818401526020810190506119b8565b838111156119e2576000848401525b50505050565b6000601f19601f830116905091905056fea265627a7a72305820e87f2a3df83635230c99fa7ba160d9b7ab1f83e304248e46b5407ef5c8d23bcc6c6578706572696d656e74616cf50037",
  "source": "// SPDX-License-Identifier: MIT\r\npragma solidity >=0.4.22 <0.9.0;\r\npragma experimental ABIEncoderV2;\r\n\r\n/**\r\n * @title SCC - Software Compliance Contract\r\n * @dev Manages Software Permissions and Binary Monitoring\r\n */\r\n\r\n/**\r\n * Requirements:\r\n *\r\n * Owner (Company):\r\n *  -> Can submit permissions and binary hash on creation\r\n *  -> Can register keys for software user logins\r\n *\r\n * Software Users:\r\n *  -> Can submit a report for voting\r\n *  -> Can vote on pending reports to publish \r\n *  -> Can revoke authorization upon software uninstallation\r\n *  -> Can link themselves to a valid key upon software installation (login)\r\n *\r\n *  Everyone:\r\n *  -> Consults Binary Hash and Permissions\r\n *  -> Views reports with behaviors.\r\n *  -> Accesses an overview of all reports.\r\n */\r\n\r\ncontract SCC {\r\n    // Binary hash representing the software's unique identifier\r\n    string public binaryHash;\r\n\r\n    // Array storing the list of permissions associated with the software\r\n    string[] public permissions;\r\n\r\n    // Address of the contract owner, typically the company managing the software\r\n    address private owner;\r\n\r\n    /* MAPPING */\r\n    //  User addresses to their respective access keys for software validation\r\n    mapping(address => bytes32) private userToKeys;\r\n    // Keys to used or not used\r\n    mapping(bytes32 => bool) private usedKeys;\r\n    // List registered keys\r\n    mapping(bytes32 => bool) private registeredKeys;\r\n    // Report IDs to arrays of software behavior descriptions\r\n    mapping(uint256 => string[]) public reports;\r\n    mapping(uint256 => string[]) private pendingReports;\r\n    // Maps each pending report ID to the count of approval votes.\r\n    mapping(uint256 => uint256) private pendingReportToApprovalVotes;\r\n    // Tracks whether a user has voted on a specific pending report ID.\r\n    mapping(uint256 => mapping(address => bool)) private userHasVotedOnPendingReport;\r\n\r\n    /* COUNTER */\r\n    //  for active software users\r\n    uint256 private activateUsers;\r\n    //  for generated reports\r\n    uint256 private reportCount;\r\n    //  for pending reports\r\n    uint256 private pendingReportCount;\r\n    // For reporting permissions that have been violated\r\n    uint256 private violatedPermissionsCount;\r\n\r\n    // Event emitted when a new software behavior report is generated\r\n    event ReportGenerated(\r\n        uint256 indexed reportId, // Unique identifier for the report\r\n        address indexed user, // Address of the user who generated the report\r\n        string[] reportSoftwareBehavior, // Array of behaviors reported by the user\r\n        bool indexed violated // Flag indicating if permissions were violated\r\n    );\r\n\r\n    //Event emitted when a pending software behavior report is generated\r\n    event pendingReportGenerated(\r\n        uint256 indexed reportId, // Unique identifier for the report\r\n        address indexed user, // Address of the user who generated the report\r\n        string[] reportSoftwareBehavior, // Array of behaviors reported by the user\r\n        bytes32 indexed windowsKey // windows key associated with this report\r\n    );\r\n\r\n    /* MODIFIERS */\r\n    // Restrict access to owner-only functions\r\n    modifier onlyOwner() {\r\n        require(msg.sender == owner, \"Only the contract owner can call this function\");\r\n        _;\r\n    }\r\n\r\n    //Restrict access to functions not allowed for the contract owner.\r\n    modifier onlyNotOwner() {\r\n        require(msg.sender != owner, \"Not available to the contract owner\");\r\n        _;\r\n    }\r\n\r\n    //Restrict access to functions allowed only for registered software users.\r\n    modifier onlySoftwareUser() {\r\n        require(userToKeys[msg.sender] != bytes32(0), \"You are not a software user\");\r\n        _;\r\n    }\r\n\r\n    // Constructor to initialize the contract with binary hash and permissions\r\n    constructor(string memory _binaryHash, string[] memory _permissions) public {\r\n        owner = msg.sender;\r\n        binaryHash = _binaryHash;\r\n        permissions = _permissions;\r\n    }\r\n\r\n    // allow software user to create a pending report\r\n    function reportPendingSoftwareBehavior(string[] memory _behavior, bytes32 _windowsKey) public onlySoftwareUser{\r\n        require(_behavior.length > 0, \"Behavior array cannot be empty\");\r\n        require(_windowsKey != bytes32(0), \"Windows Key cannot be 0\");\r\n        pendingReports[pendingReportCount] = _behavior;\r\n        pendingReportCount++;\r\n        emit pendingReportGenerated(pendingReportCount - 1, msg.sender, _behavior, _windowsKey);\r\n    }\r\n\r\n    //// Allows software users to vote on pending reports until 50% + 1 approve the report.\r\n    function voteOnPendingReport(bool approve, uint256 pendingReportID) public onlySoftwareUser{\r\n        require(reports[pendingReportID].length > 0, \"Already published\");\r\n        require(userHasVotedOnPendingReport[pendingReportID][msg.sender] != true, \"Already voted\");\r\n        userHasVotedOnPendingReport[pendingReportID][msg.sender] = true;\r\n        if(approve){\r\n            pendingReportToApprovalVotes[pendingReportID]++;\r\n            if(pendingReportToApprovalVotes[pendingReportID] > activateUsers / 2){\r\n                approvePendingReport(pendingReportID);\r\n            }\r\n        }\r\n    }\r\n\r\n    // Function for contract to approve a new report\r\n    function approvePendingReport(uint256 pendingReportID) internal  onlySoftwareUser{\r\n        bool violated = false;\r\n        if (pendingReports[pendingReportID].length > permissions.length) {\r\n            violatedPermissionsCount++;\r\n            violated = true;\r\n        }\r\n        reports[pendingReportID] = pendingReports[pendingReportID];\r\n        reportCount++;\r\n\r\n        // Emit event to notify about the new report generated\r\n        emit ReportGenerated(pendingReportID, msg.sender, pendingReports[pendingReportID], violated);\r\n    }\r\n\r\n    // Key example: 0x1234567890abcdef1234567890abcdef1234567890abcdef1234567890abcdef\r\n    // Function to register a new valid key and not used\r\n    function registerKey(bytes32 _key) public onlyOwner {\r\n        require(_key != bytes32(0), \"Invalid key\");\r\n        require(!registeredKeys[_key], \"Key already registered\");\r\n        registeredKeys[_key] = true;\r\n    }\r\n\r\n    // Function to a software user authorize yourself\r\n    function authorizeUser(bytes32 _key) public onlyNotOwner {\r\n        require(registeredKeys[_key], \"Invalid key\");\r\n        require(!usedKeys[_key], \"Key already used\");\r\n        userToKeys[msg.sender] = _key;\r\n        usedKeys[_key] = true;\r\n        activateUsers++;\r\n    }\r\n\r\n    // Function for software users to revoke their own authorization\r\n    function revokeAuthorization() public onlySoftwareUser {\r\n        userToKeys[msg.sender] = bytes32(0);\r\n        activateUsers--;\r\n    }\r\n\r\n    // Function to return a report overview\r\n    function retrieveReportOverview() public view returns (uint256, uint256, uint256){\r\n        return (activateUsers, reportCount, violatedPermissionsCount);\r\n    }\r\n}",
  "sourcePath": "C:\\Users\\hyago\\ProjetoIntegrador\\smart-contract\\contracts\\SCC.sol",
  "compiler": {
    "name": "solc",
    "version": "0.5.1+commit.c8a2cb62.Emscripten.clang"
  },
  "schemaVersion": "3.4.16",
  "updatedAt": "2024-07-05T19:39:56.127Z",
  "networkType": "ethereum",
  "devdoc": {
    "methods": {}
  },
  "userdoc": {
    "methods": {
      "voteOnPendingReport(bool,uint256)": {
        "notice": "/ Allows software users to vote on pending reports until 50% + 1 approve the report."
      }
    },
    "notice": "Requirements:\r  * Owner (Company):\r -> Can submit permissions and binary hash on creation\r -> Can register keys for software user logins\r  * Software Users:\r -> Can submit a report for voting\r -> Can vote on pending reports to publish \r -> Can revoke authorization upon software uninstallation\r -> Can link themselves to a valid key upon software installation (login)\r  *  Everyone:\r -> Consults Binary Hash and Permissions\r -> Views reports with behaviors.\r -> Accesses an overview of all reports.\r"
  }
}