{
  "contractName": "SCC",
  "abi": [
    {
      "constant": true,
      "inputs": [],
      "name": "binaryHash",
      "outputs": [
        {
          "name": "",
          "type": "string"
        }
      ],
      "payable": false,
      "stateMutability": "view",
      "type": "function"
    },
    {
      "constant": true,
      "inputs": [
        {
          "name": "",
          "type": "bytes32"
        }
      ],
      "name": "foundCapabilities",
      "outputs": [
        {
          "name": "",
          "type": "bool"
        }
      ],
      "payable": false,
      "stateMutability": "view",
      "type": "function"
    },
    {
      "constant": true,
      "inputs": [
        {
          "name": "",
          "type": "bytes32"
        }
      ],
      "name": "allowedCapabilities",
      "outputs": [
        {
          "name": "",
          "type": "bool"
        }
      ],
      "payable": false,
      "stateMutability": "view",
      "type": "function"
    },
    {
      "inputs": [
        {
          "name": "_binaryHash",
          "type": "string"
        },
        {
          "name": "_allowedCapabilities",
          "type": "bytes32[]"
        }
      ],
      "payable": false,
      "stateMutability": "nonpayable",
      "type": "constructor"
    },
    {
      "anonymous": false,
      "inputs": [
        {
          "indexed": true,
          "name": "user",
          "type": "address"
        },
        {
          "indexed": true,
          "name": "softwareBehavior",
          "type": "bytes32"
        }
      ],
      "name": "CapabilityFoundByUser",
      "type": "event"
    },
    {
      "anonymous": false,
      "inputs": [
        {
          "indexed": true,
          "name": "user",
          "type": "address"
        },
        {
          "indexed": false,
          "name": "softwareBehavior",
          "type": "bytes32"
        }
      ],
      "name": "CapabilityViolated",
      "type": "event"
    },
    {
      "constant": false,
      "inputs": [
        {
          "name": "_key",
          "type": "bytes32"
        }
      ],
      "name": "registerKey",
      "outputs": [],
      "payable": false,
      "stateMutability": "nonpayable",
      "type": "function"
    },
    {
      "constant": false,
      "inputs": [
        {
          "name": "_key",
          "type": "bytes32"
        }
      ],
      "name": "authorizeUser",
      "outputs": [],
      "payable": false,
      "stateMutability": "nonpayable",
      "type": "function"
    },
    {
      "constant": false,
      "inputs": [],
      "name": "revokeAuthorization",
      "outputs": [],
      "payable": false,
      "stateMutability": "nonpayable",
      "type": "function"
    },
    {
      "constant": true,
      "inputs": [],
      "name": "retrieveReportOverview",
      "outputs": [
        {
          "name": "",
          "type": "uint256"
        },
        {
          "name": "",
          "type": "uint256"
        },
        {
          "name": "",
          "type": "uint256"
        }
      ],
      "payable": false,
      "stateMutability": "view",
      "type": "function"
    },
    {
      "constant": false,
      "inputs": [
        {
          "name": "_softwareBehavior",
          "type": "bytes32"
        },
        {
          "name": "_signature",
          "type": "bytes"
        }
      ],
      "name": "reportCapability",
      "outputs": [],
      "payable": false,
      "stateMutability": "nonpayable",
      "type": "function"
    },
    {
      "constant": true,
      "inputs": [
        {
          "name": "_hash",
          "type": "bytes32"
        },
        {
          "name": "_signature",
          "type": "bytes"
        }
      ],
      "name": "verifySignature",
      "outputs": [
        {
          "name": "",
          "type": "address"
        }
      ],
      "payable": false,
      "stateMutability": "pure",
      "type": "function"
    },
    {
      "constant": true,
      "inputs": [
        {
          "name": "_messageHash",
          "type": "bytes32"
        },
        {
          "name": "_signature",
          "type": "bytes"
        }
      ],
      "name": "recoverSigner",
      "outputs": [
        {
          "name": "",
          "type": "address"
        }
      ],
      "payable": false,
      "stateMutability": "pure",
      "type": "function"
    }
  ],
  "bytecode": "0x608060405273189926e611c2b238d339e25e81345831de8840566000806101000a81548173ffffffffffffffffffffffffffffffffffffffff021916908373ffffffffffffffffffffffffffffffffffffffff1602179055503480156200006557600080fd5b506040516200142c3803806200142c833981018060405260408110156200008b57600080fd5b810190808051640100000000811115620000a457600080fd5b82810190506020810184811115620000bb57600080fd5b8151856001820283011164010000000082111715620000d957600080fd5b50509291906020018051640100000000811115620000f657600080fd5b828101905060208101848111156200010d57600080fd5b81518560208202830111640100000000821117156200012b57600080fd5b505092919050505033600460006101000a81548173ffffffffffffffffffffffffffffffffffffffff021916908373ffffffffffffffffffffffffffffffffffffffff16021790555081600190805190602001906200018c929190620001f8565b5060008090505b8151811015620001ef576001600260008484815181101515620001b257fe5b90602001906020020151815260200190815260200160002060006101000a81548160ff021916908315150217905550808060010191505062000193565b505050620002a7565b828054600181600116156101000203166002900490600052602060002090601f016020900481019282601f106200023b57805160ff19168380011785556200026c565b828001600101855582156200026c579182015b828111156200026b5782518255916020019190600101906200024e565b5b5090506200027b91906200027f565b5090565b620002a491905b80821115620002a057600081600090555060010162000286565b5090565b90565b61117580620002b76000396000f3fe60806040526004361061009e576000357c0100000000000000000000000000000000000000000000000000000000900480631463430e146100a357806337b05812146101755780637950055e1461018c5780637dae39451461021c57806397aba7f914610257578063c72ac8be14610369578063cd80557e146103a2578063d68ba264146103dd578063daca6f7814610430578063e665f77714610542575b600080fd5b3480156100af57600080fd5b50610173600480360360408110156100c657600080fd5b8101908080359060200190929190803590602001906401000000008111156100ed57600080fd5b8201836020820111156100ff57600080fd5b8035906020019184600183028401116401000000008311171561012157600080fd5b91908080601f016020809104026020016040519081016040528093929190818152602001838380828437600081840152601f19601f820116905080830192505050505050509192919290505050610595565b005b34801561018157600080fd5b5061018a6106cc565b005b34801561019857600080fd5b506101a1610849565b6040518080602001828103825283818151815260200191508051906020019080838360005b838110156101e15780820151818401526020810190506101c6565b50505050905090810190601f16801561020e5780820380516001836020036101000a031916815260200191505b509250505060405180910390f35b34801561022857600080fd5b506102556004803603602081101561023f57600080fd5b81019080803590602001909291905050506108e7565b005b34801561026357600080fd5b506103276004803603604081101561027a57600080fd5b8101908080359060200190929190803590602001906401000000008111156102a157600080fd5b8201836020820111156102b357600080fd5b803590602001918460018302840111640100000000831117156102d557600080fd5b91908080601f016020809104026020016040519081016040528093929190818152602001838380828437600081840152601f19601f820116905080830192505050505050509192919290505050610c47565b604051808273ffffffffffffffffffffffffffffffffffffffff1673ffffffffffffffffffffffffffffffffffffffff16815260200191505060405180910390f35b34801561037557600080fd5b5061037e610d51565b60405180848152602001838152602001828152602001935050505060405180910390f35b3480156103ae57600080fd5b506103db600480360360208110156103c557600080fd5b8101908080359060200190929190505050610d6a565b005b3480156103e957600080fd5b506104166004803603602081101561040057600080fd5b8101908080359060200190929190505050610f9e565b604051808215151515815260200191505060405180910390f35b34801561043c57600080fd5b506105006004803603604081101561045357600080fd5b81019080803590602001909291908035906020019064010000000081111561047a57600080fd5b82018360208201111561048c57600080fd5b803590602001918460018302840111640100000000831117156104ae57600080fd5b91908080601f016020809104026020016040519081016040528093929190818152602001838380828437600081840152601f19601f820116905080830192505050505050509192919290505050610fbe565b604051808273ffffffffffffffffffffffffffffffffffffffff1673ffffffffffffffffffffffffffffffffffffffff16815260200191505060405180910390f35b34801561054e57600080fd5b5061057b6004803603602081101561056557600080fd5b8101908080359060200190929190505050610fd7565b604051808215151515815260200191505060405180910390f35b6000826040516020018082815260200191505060405160208183030381529060405280519060200120905060006105cc8284610fbe565b9050833373ffffffffffffffffffffffffffffffffffffffff167f69921112b8ced21689f0404b7cd5f8795ff28383fee0fb1df2d1f749b0b372a660405160405180910390a360016003600086815260200190815260200160002060006101000a81548160ff0219169083151502179055506002600085815260200190815260200160002060009054906101000a900460ff1615156106c6573373ffffffffffffffffffffffffffffffffffffffff167fdb9d68d2396fde583ce9b3d2b02c29b2fedb458b9be67789472e6942a3865808856040518082815260200191505060405180910390a2600c600081548092919060010191905055505b50505050565b6000600102600560003373ffffffffffffffffffffffffffffffffffffffff1673ffffffffffffffffffffffffffffffffffffffff1681526020019081526020016000205414151515610787576040517f08c379a000000000000000000000000000000000000000000000000000000000815260040180806020018281038252601b8152602001807f596f7520617265206e6f74206120736f6674776172652075736572000000000081525060200191505060405180910390fd5b6000600102600560003373ffffffffffffffffffffffffffffffffffffffff1673ffffffffffffffffffffffffffffffffffffffff16815260200190815260200160002081905550600960008154809291906001900391905055506000600860003373ffffffffffffffffffffffffffffffffffffffff1673ffffffffffffffffffffffffffffffffffffffff1681526020019081526020016000205414151561083f57600b60008154809291906001900391905055505b610847610ff7565b565b60018054600181600116156101000203166002900480601f0160208091040260200160405190810160405280929190818152602001828054600181600116156101000203166002900480156108df5780601f106108b4576101008083540402835291602001916108df565b820191906000526020600020905b8154815290600101906020018083116108c257829003601f168201915b505050505081565b600460009054906101000a900473ffffffffffffffffffffffffffffffffffffffff1673ffffffffffffffffffffffffffffffffffffffff163373ffffffffffffffffffffffffffffffffffffffff16141515156109d3576040517f08c379a00000000000000000000000000000000000000000000000000000000081526004018080602001828103825260238152602001807f4e6f7420617661696c61626c6520746f2074686520636f6e7472616374206f7781526020017f6e6572000000000000000000000000000000000000000000000000000000000081525060400191505060405180910390fd5b6007600082815260200190815260200160002060009054906101000a900460ff161515610a68576040517f08c379a000000000000000000000000000000000000000000000000000000000815260040180806020018281038252600b8152602001807f496e76616c6964206b657900000000000000000000000000000000000000000081525060200191505060405180910390fd5b6006600082815260200190815260200160002060009054906101000a900460ff16151515610afe576040517f08c379a00000000000000000000000000000000000000000000000000000000081526004018080602001828103825260108152602001807f4b657920616c726561647920757365640000000000000000000000000000000081525060200191505060405180910390fd5b80600560003373ffffffffffffffffffffffffffffffffffffffff1673ffffffffffffffffffffffffffffffffffffffff1681526020019081526020016000208190555060016006600083815260200190815260200160002060006101000a81548160ff021916908315150217905550600960008154809291906001019190505550600a3390806001815401808255809150509060018203906000526020600020016000909192909190916101000a81548173ffffffffffffffffffffffffffffffffffffffff021916908373ffffffffffffffffffffffffffffffffffffffff16021790555050600b6000815480929190600101919050555042600860003373ffffffffffffffffffffffffffffffffffffffff1673ffffffffffffffffffffffffffffffffffffffff16815260200190815260200160002081905550610c44610ff7565b50565b600060418251141515610cc2576040517f08c379a00000000000000000000000000000000000000000000000000000000081526004018080602001828103825260188152602001807f496e76616c6964207369676e6174757265206c656e677468000000000000000081525060200191505060405180910390fd5b60008060006020850151925060408501519150606085015160001a905060018682858560405160008152602001604052604051808581526020018460ff1660ff1681526020018381526020018281526020019450505050506020604051602081039080840390855afa158015610d3c573d6000803e3d6000fd5b50505060206040510351935050505092915050565b6000806000600954600b54600c54925092509250909192565b600460009054906101000a900473ffffffffffffffffffffffffffffffffffffffff1673ffffffffffffffffffffffffffffffffffffffff163373ffffffffffffffffffffffffffffffffffffffff16141515610e55576040517f08c379a000000000000000000000000000000000000000000000000000000000815260040180806020018281038252602e8152602001807f4f6e6c792074686520636f6e7472616374206f776e65722063616e2063616c6c81526020017f20746869732066756e6374696f6e00000000000000000000000000000000000081525060400191505060405180910390fd5b60006001028114151515610ed1576040517f08c379a000000000000000000000000000000000000000000000000000000000815260040180806020018281038252600b8152602001807f496e76616c6964206b657900000000000000000000000000000000000000000081525060200191505060405180910390fd5b6007600082815260200190815260200160002060009054906101000a900460ff16151515610f67576040517f08c379a00000000000000000000000000000000000000000000000000000000081526004018080602001828103825260168152602001807f4b657920616c726561647920726567697374657265640000000000000000000081525060200191505060405180910390fd5b60016007600083815260200190815260200160002060006101000a81548160ff021916908315150217905550610f9b610ff7565b50565b60036020528060005260406000206000915054906101000a900460ff1681565b600080610fcb8484610c47565b90508091505092915050565b60026020528060005260406000206000915054906101000a900460ff1681565b60008090505b600a8054905081101561114657600060086000600a8481548110151561101f57fe5b9060005260206000200160009054906101000a900473ffffffffffffffffffffffffffffffffffffffff1673ffffffffffffffffffffffffffffffffffffffff1673ffffffffffffffffffffffffffffffffffffffff168152602001908152602001600020549050600081141515611138576000814203905062093a808110151561113657600b6000815480929190600190039190505550600060086000600a868154811015156110cc57fe5b9060005260206000200160009054906101000a900473ffffffffffffffffffffffffffffffffffffffff1673ffffffffffffffffffffffffffffffffffffffff1673ffffffffffffffffffffffffffffffffffffffff168152602001908152602001600020819055505b505b508080600101915050610ffd565b5056fea165627a7a7230582062ba05c7bf85ac5345912c8d4e00dc9be451b47bb9cbd6c9b3096a8fbcf178be0029",
  "source": "// SPDX-License-Identifier: MIT\r\npragma solidity >=0.4.22 <0.9.0;\r\n\r\n/**\r\n * @title SCC - Software Compliance Contract\r\n * @dev Manages Software Capabilities and Binary Monitoring\r\n */\r\n\r\n/**\r\n * Requirements:\r\n *\r\n * Owner (Company):\r\n *  -> Can submit Capabilities and binary hash on creation\r\n *  -> Can register keys for software user logins\r\n *\r\n * Software Users:\r\n *  -> Can submit a report\r\n *  -> Can revoke authorization upon software uninstallation\r\n *  -> Can link themselves to a valid key upon software installation (login)\r\n *\r\n *  Everyone:\r\n *  -> Consults Binary Hash and Capabilities\r\n *  -> Views reports with behaviors.\r\n *  -> Accesses an overview of all reports.\r\n */\r\n\r\n // criar função que retorna capabilities permitidas\r\n // criar função que retorna report com capabilities\r\n\r\ncontract SCC {\r\n\r\n    //last user from ganache\r\n    address private microsoftAddress = 0x189926E611c2B238D339e25E81345831dE884056;\r\n    \r\n    // variable to define time to inactivity\r\n    uint256 constant inactivityPeriod = 1 weeks;\r\n\r\n    // Binary hash representing the software's unique identifier\r\n    string public binaryHash;\r\n\r\n    mapping(bytes32 => bool) public allowedCapabilities;\r\n    // Array storing the list of capabilities associated with the software\r\n    //bytes32[] public allowedCapabilities;\r\n\r\n    // Array storing the list of capabilities found by users\r\n    mapping(bytes32 => bool) public foundCapabilities;\r\n    //bytes32[] public foundCapabilities;\r\n\r\n    // Address of the contract owner, typically the company managing the software\r\n    address private owner;\r\n\r\n    /* MAPPING */\r\n    //  User addresses to their respective access keys for software validation\r\n    mapping(address => bytes32) private userToKeys;\r\n    // Keys to used or not used\r\n    mapping(bytes32 => bool) private usedKeys;\r\n    // List registered keys\r\n    mapping(bytes32 => bool) private registeredKeys;\r\n\r\n    mapping(address => uint256) private userToLastInteraction;\r\n\r\n    /* COUNTER */\r\n    //  for software users\r\n    uint256 private users;\r\n    address[] private usersAddress;\r\n    //  for activate software users\r\n    uint256 private activeUsers;\r\n\r\n    // For reporting capabilities that have been violated\r\n    uint256 private violatedCapabilitiesCount;\r\n\r\n    //Event Capabilities found\r\n    event CapabilityFoundByUser(\r\n        address indexed user,\r\n        bytes32 indexed softwareBehavior\r\n    );\r\n\r\n    // Event emitted when a new software behavior report is generated\r\n    // Event Capabilities violated\r\n    event CapabilityViolated(\r\n        address indexed user,\r\n        bytes32 softwareBehavior\r\n    );\r\n\r\n    /* MODIFIERS */\r\n    // Restrict access to owner-only functions\r\n    modifier onlyOwner() {\r\n        require(msg.sender == owner, \"Only the contract owner can call this function\");\r\n        _;\r\n    }\r\n\r\n    //Restrict access to functions not allowed for the contract owner.\r\n    modifier onlyNotOwner() {\r\n        require(msg.sender != owner, \"Not available to the contract owner\");\r\n        _;\r\n    }\r\n\r\n    //Restrict access to functions allowed only for registered software users.\r\n    modifier onlySoftwareUser() {\r\n        require(userToKeys[msg.sender] != bytes32(0), \"You are not a software user\");\r\n        _;\r\n    }\r\n\r\n    // Constructor to initialize the contract with binary hash and capabilities\r\n    constructor(string memory _binaryHash, bytes32[] memory _allowedCapabilities) public {\r\n        owner = msg.sender;\r\n        binaryHash = _binaryHash;\r\n        for (uint i = 0; i < _allowedCapabilities.length; i++) {\r\n            allowedCapabilities[_allowedCapabilities[i]] = true;\r\n        }\r\n    }\r\n\r\n    // Key example: 0x1234567890abcdef1234567890abcdef1234567890abcdef1234567890abcdef\r\n    // Function to register a new valid key and not used\r\n    function registerKey(bytes32 _key) public onlyOwner {\r\n        require(_key != bytes32(0), \"Invalid key\");\r\n        require(!registeredKeys[_key], \"Key already registered\");\r\n        registeredKeys[_key] = true;\r\n        checkAndUpdateInactiveUser();\r\n    }\r\n\r\n    // Function to a software user authorize yourself\r\n    function authorizeUser(bytes32 _key) public onlyNotOwner {\r\n        require(registeredKeys[_key], \"Invalid key\");\r\n        require(!usedKeys[_key], \"Key already used\");\r\n        userToKeys[msg.sender] = _key;\r\n        usedKeys[_key] = true;\r\n        users++;\r\n        usersAddress.push(msg.sender);\r\n        activeUsers++;\r\n        userToLastInteraction[msg.sender] = block.timestamp;\r\n        checkAndUpdateInactiveUser();\r\n    }\r\n\r\n    // Function for software users to revoke their own authorization\r\n    function revokeAuthorization() public onlySoftwareUser {\r\n        userToKeys[msg.sender] = bytes32(0);\r\n        users--;\r\n        // if user wasnt inactive, decrement active users\r\n        if(userToLastInteraction[msg.sender]!=0){\r\n            activeUsers--;\r\n        }\r\n        checkAndUpdateInactiveUser();\r\n    }\r\n\r\n    // Function to return a report overview\r\n    function retrieveReportOverview() public view returns (uint256, uint256, uint256){\r\n        return (users, activeUsers, violatedCapabilitiesCount);\r\n    }\r\n\r\n    // update the activeUser count to approve pending report\r\n    function checkAndUpdateInactiveUser() internal {\r\n        for (uint256 i = 0; i < usersAddress.length; i++) {\r\n            uint256 lastInteraction = userToLastInteraction[usersAddress[i]];\r\n            if (lastInteraction != 0) {\r\n                uint256 timeElapsed = block.timestamp - lastInteraction;\r\n                if (timeElapsed >= inactivityPeriod) {\r\n                    // If the user has become inactive\r\n                    activeUsers--;\r\n                    // Reset the interaction timestamp to 0\r\n                    userToLastInteraction[usersAddress[i]] = 0;\r\n                }\r\n            }\r\n        }\r\n    }\r\n\r\n    function toHex(address _addr) internal pure returns (string memory) {\r\n         return string(abi.encode(_addr));\r\n    }\r\n\r\n    //verificar se foi de fato violated\r\n    function reportCapability(bytes32 _softwareBehavior, bytes memory _signature) public {\r\n        bytes32 reportHash = keccak256(abi.encode(_softwareBehavior));\r\n        //bytes32 prefixedHash = prefixed(reportHash);\r\n\r\n         // Verifica a assinatura\r\n        address signer = verifySignature(reportHash, _signature);\r\n\r\n        //require(signer == microsoftAddress, string(abi.encode(\"Expected: \", toHex(microsoftAddress), \" Got: \", toHex(signer))));\r\n\r\n        emit CapabilityFoundByUser(msg.sender, _softwareBehavior);\r\n        foundCapabilities[_softwareBehavior] = true;\r\n        if (!allowedCapabilities[_softwareBehavior]) {\r\n            emit CapabilityViolated(msg.sender, _softwareBehavior);\r\n            violatedCapabilitiesCount++;\r\n        }\r\n    }\r\n\r\n    // function to verify the signature\r\n    function verifySignature(bytes32 _hash, bytes memory _signature) public pure returns (address) {\r\n        address signer = recoverSigner(_hash, _signature);\r\n        return signer;\r\n    }\r\n\r\n    // function to add prefix to the message\r\n    function prefixed(bytes32 _hash) internal pure returns (bytes32) {\r\n        return keccak256(abi.encode(\"\\x19Ethereum Signed Message:\\n32\", _hash));\r\n    }\r\n\r\n    function recoverSigner(bytes32 _messageHash, bytes memory _signature) public pure returns (address) {\r\n        require(_signature.length == 65, \"Invalid signature length\");\r\n\r\n        bytes32 r;\r\n        bytes32 s;\r\n        uint8 v;\r\n\r\n        assembly {\r\n            r := mload(add(_signature, 32))\r\n            s := mload(add(_signature, 64))\r\n            v := byte(0, mload(add(_signature, 96)))\r\n        }\r\n\r\n        return ecrecover(_messageHash, v, r, s);\r\n    }\r\n\r\n}",
  "sourcePath": "C:\\Users\\hyago\\Desktop\\Mestrado\\SCC\\v1\\truffle-contractV1\\contracts\\SCC.sol",
  "compiler": {
    "name": "solc",
    "version": "0.5.1+commit.c8a2cb62.Emscripten.clang"
  },
  "schemaVersion": "3.4.16",
  "updatedAt": "2025-04-04T21:37:37.987Z",
  "networkType": "ethereum",
  "devdoc": {
    "methods": {}
  },
  "userdoc": {
    "methods": {},
    "notice": "Requirements:\r  * Owner (Company):\r -> Can submit Capabilities and binary hash on creation\r -> Can register keys for software user logins\r  * Software Users:\r -> Can submit a report\r -> Can revoke authorization upon software uninstallation\r -> Can link themselves to a valid key upon software installation (login)\r  *  Everyone:\r -> Consults Binary Hash and Capabilities\r -> Views reports with behaviors.\r -> Accesses an overview of all reports.\r"
  }
}