{
  "contractName": "SCC",
  "abi": [
    {
      "constant": true,
      "inputs": [
        {
          "name": "",
          "type": "uint256"
        },
        {
          "name": "",
          "type": "uint256"
        }
      ],
      "name": "reports",
      "outputs": [
        {
          "name": "",
          "type": "string"
        }
      ],
      "payable": false,
      "stateMutability": "view",
      "type": "function"
    },
    {
      "constant": true,
      "inputs": [
        {
          "name": "",
          "type": "uint256"
        }
      ],
      "name": "permissions",
      "outputs": [
        {
          "name": "",
          "type": "string"
        }
      ],
      "payable": false,
      "stateMutability": "view",
      "type": "function"
    },
    {
      "constant": true,
      "inputs": [],
      "name": "binaryHash",
      "outputs": [
        {
          "name": "",
          "type": "string"
        }
      ],
      "payable": false,
      "stateMutability": "view",
      "type": "function"
    },
    {
      "inputs": [
        {
          "name": "_binaryHash",
          "type": "string"
        },
        {
          "name": "_permissions",
          "type": "string[]"
        }
      ],
      "payable": false,
      "stateMutability": "nonpayable",
      "type": "constructor"
    },
    {
      "anonymous": false,
      "inputs": [
        {
          "indexed": true,
          "name": "reportId",
          "type": "uint256"
        },
        {
          "indexed": true,
          "name": "user",
          "type": "address"
        },
        {
          "indexed": false,
          "name": "reportSoftwareBehavior",
          "type": "string[]"
        },
        {
          "indexed": true,
          "name": "violated",
          "type": "bool"
        }
      ],
      "name": "ReportGenerated",
      "type": "event"
    },
    {
      "anonymous": false,
      "inputs": [
        {
          "indexed": true,
          "name": "reportId",
          "type": "uint256"
        },
        {
          "indexed": true,
          "name": "user",
          "type": "address"
        },
        {
          "indexed": false,
          "name": "reportSoftwareBehavior",
          "type": "string[]"
        },
        {
          "indexed": true,
          "name": "windowsKey",
          "type": "bytes32"
        }
      ],
      "name": "pendingReportGenerated",
      "type": "event"
    },
    {
      "constant": false,
      "inputs": [
        {
          "name": "_behavior",
          "type": "string[]"
        },
        {
          "name": "_windowsKey",
          "type": "bytes32"
        }
      ],
      "name": "reportPendingSoftwareBehavior",
      "outputs": [],
      "payable": false,
      "stateMutability": "nonpayable",
      "type": "function"
    },
    {
      "constant": false,
      "inputs": [
        {
          "name": "approve",
          "type": "bool"
        },
        {
          "name": "pendingReportID",
          "type": "uint256"
        }
      ],
      "name": "voteOnPendingReport",
      "outputs": [],
      "payable": false,
      "stateMutability": "nonpayable",
      "type": "function"
    },
    {
      "constant": false,
      "inputs": [
        {
          "name": "_key",
          "type": "bytes32"
        }
      ],
      "name": "registerKey",
      "outputs": [],
      "payable": false,
      "stateMutability": "nonpayable",
      "type": "function"
    },
    {
      "constant": false,
      "inputs": [
        {
          "name": "_key",
          "type": "bytes32"
        }
      ],
      "name": "authorizeUser",
      "outputs": [],
      "payable": false,
      "stateMutability": "nonpayable",
      "type": "function"
    },
    {
      "constant": false,
      "inputs": [],
      "name": "revokeAuthorization",
      "outputs": [],
      "payable": false,
      "stateMutability": "nonpayable",
      "type": "function"
    },
    {
      "constant": true,
      "inputs": [],
      "name": "retrieveReportOverview",
      "outputs": [
        {
          "name": "",
          "type": "uint256"
        },
        {
          "name": "",
          "type": "uint256"
        },
        {
          "name": "",
          "type": "uint256"
        },
        {
          "name": "",
          "type": "uint256"
        }
      ],
      "payable": false,
      "stateMutability": "view",
      "type": "function"
    }
  ],
  "bytecode": "0x60806040523480156200001157600080fd5b50604051620023fb380380620023fb833981018060405262000037919081019062000407565b33600260006101000a81548173ffffffffffffffffffffffffffffffffffffffff021916908373ffffffffffffffffffffffffffffffffffffffff160217905550816000908051906020019062000090929190620000b2565b508060019080519060200190620000a992919062000139565b50505062000561565b828054600181600116156101000203166002900490600052602060002090601f016020900481019282601f10620000f557805160ff191683800117855562000126565b8280016001018555821562000126579182015b828111156200012557825182559160200191906001019062000108565b5b509050620001359190620001a0565b5090565b8280548282559060005260206000209081019282156200018d579160200282015b828111156200018c5782518290805190602001906200017b929190620001c8565b50916020019190600101906200015a565b5b5090506200019c91906200024f565b5090565b620001c591905b80821115620001c1576000816000905550600101620001a7565b5090565b90565b828054600181600116156101000203166002900490600052602060002090601f016020900481019282601f106200020b57805160ff19168380011785556200023c565b828001600101855582156200023c579182015b828111156200023b5782518255916020019190600101906200021e565b5b5090506200024b9190620001a0565b5090565b6200027d91905b808211156200027957600081816200026f919062000280565b5060010162000256565b5090565b90565b50805460018160011615610100020316600290046000825580601f10620002a85750620002c9565b601f016020900490600052602060002090810190620002c89190620001a0565b5b50565b600082601f8301121515620002e057600080fd5b8151620002f7620002f182620004a8565b6200047a565b9150818183526020840193506020810190508360005b838110156200034157815186016200032688826200034b565b8452602084019350602083019250506001810190506200030d565b5050505092915050565b600082601f83011215156200035f57600080fd5b8151620003766200037082620004d1565b6200047a565b915080825260208301602083018583830111156200039357600080fd5b620003a08382846200052b565b50505092915050565b600082601f8301121515620003bd57600080fd5b8151620003d4620003ce82620004fe565b6200047a565b91508082526020830160208301858383011115620003f157600080fd5b620003fe8382846200052b565b50505092915050565b600080604083850312156200041b57600080fd5b600083015167ffffffffffffffff8111156200043657600080fd5b6200044485828601620003a9565b925050602083015167ffffffffffffffff8111156200046257600080fd5b6200047085828601620002cc565b9150509250929050565b6000604051905081810181811067ffffffffffffffff821117156200049e57600080fd5b8060405250919050565b600067ffffffffffffffff821115620004c057600080fd5b602082029050602081019050919050565b600067ffffffffffffffff821115620004e957600080fd5b601f19601f8301169050602081019050919050565b600067ffffffffffffffff8211156200051657600080fd5b601f19601f8301169050602081019050919050565b60005b838110156200054b5780820151818401526020810190506200052e565b838111156200055b576000848401525b50505050565b611e8a80620005716000396000f3fe608060405260043610610093576000357c0100000000000000000000000000000000000000000000000000000000900480632d283db51461009857806337b05812146100d557806358886dba146100ec5780637950055e146101295780637dae39451461015457806387dd3e711461017d5780639628a669146101a6578063c72ac8be146101cf578063cd80557e146101fd575b600080fd5b3480156100a457600080fd5b506100bf60048036036100ba9190810190611650565b610226565b6040516100cc9190611b1f565b60405180910390f35b3480156100e157600080fd5b506100ea6102ee565b005b3480156100f857600080fd5b50610113600480360361010e9190810190611627565b610438565b6040516101209190611b1f565b60405180910390f35b34801561013557600080fd5b5061013e6104f3565b60405161014b9190611b1f565b60405180910390f35b34801561016057600080fd5b5061017b600480360361017691908101906115fe565b610591565b005b34801561018957600080fd5b506101a4600480360361019f919081019061156e565b610832565b005b3480156101b257600080fd5b506101cd60048036036101c891908101906115c2565b610a2a565b005b3480156101db57600080fd5b506101e4610cf2565b6040516101f49493929190611ca1565b60405180910390f35b34801561020957600080fd5b50610224600480360361021f91908101906115fe565b610d12565b005b60066020528160005260406000208181548110151561024157fe5b90600052602060002001600091509150508054600181600116156101000203166002900480601f0160208091040260200160405190810160405280929190818152602001828054600181600116156101000203166002900480156102e65780601f106102bb576101008083540402835291602001916102e6565b820191906000526020600020905b8154815290600101906020018083116102c957829003601f168201915b505050505081565b6000600102600360003373ffffffffffffffffffffffffffffffffffffffff1673ffffffffffffffffffffffffffffffffffffffff1681526020019081526020016000205414151515610376576040517f08c379a000000000000000000000000000000000000000000000000000000000815260040161036d90611c61565b60405180910390fd5b6000600102600360003373ffffffffffffffffffffffffffffffffffffffff1673ffffffffffffffffffffffffffffffffffffffff16815260200190815260200160002081905550600b60008154809291906001900391905055506000600a60003373ffffffffffffffffffffffffffffffffffffffff1673ffffffffffffffffffffffffffffffffffffffff1681526020019081526020016000205414151561042e57600d60008154809291906001900391905055505b610436610e87565b565b60018181548110151561044757fe5b906000526020600020016000915090508054600181600116156101000203166002900480601f0160208091040260200160405190810160405280929190818152602001828054600181600116156101000203166002900480156104eb5780601f106104c0576101008083540402835291602001916104eb565b820191906000526020600020905b8154815290600101906020018083116104ce57829003601f168201915b505050505081565b60008054600181600116156101000203166002900480601f0160208091040260200160405190810160405280929190818152602001828054600181600116156101000203166002900480156105895780601f1061055e57610100808354040283529160200191610589565b820191906000526020600020905b81548152906001019060200180831161056c57829003601f168201915b505050505081565b600260009054906101000a900473ffffffffffffffffffffffffffffffffffffffff1673ffffffffffffffffffffffffffffffffffffffff163373ffffffffffffffffffffffffffffffffffffffff1614151515610624576040517f08c379a000000000000000000000000000000000000000000000000000000000815260040161061b90611c01565b60405180910390fd5b6005600082815260200190815260200160002060009054906101000a900460ff161515610686576040517f08c379a000000000000000000000000000000000000000000000000000000000815260040161067d90611b41565b60405180910390fd5b6004600082815260200190815260200160002060009054906101000a900460ff161515156106e9576040517f08c379a00000000000000000000000000000000000000000000000000000000081526004016106e090611c81565b60405180910390fd5b80600360003373ffffffffffffffffffffffffffffffffffffffff1673ffffffffffffffffffffffffffffffffffffffff1681526020019081526020016000208190555060016004600083815260200190815260200160002060006101000a81548160ff021916908315150217905550600b60008154809291906001019190505550600c3390806001815401808255809150509060018203906000526020600020016000909192909190916101000a81548173ffffffffffffffffffffffffffffffffffffffff021916908373ffffffffffffffffffffffffffffffffffffffff16021790555050600d6000815480929190600101919050555042600a60003373ffffffffffffffffffffffffffffffffffffffff1673ffffffffffffffffffffffffffffffffffffffff1681526020019081526020016000208190555061082f610e87565b50565b6000600102600360003373ffffffffffffffffffffffffffffffffffffffff1673ffffffffffffffffffffffffffffffffffffffff16815260200190815260200160002054141515156108ba576040517f08c379a00000000000000000000000000000000000000000000000000000000081526004016108b190611c61565b60405180910390fd5b60008251111515610900576040517f08c379a00000000000000000000000000000000000000000000000000000000081526004016108f790611c21565b60405180910390fd5b60006001028114151515610949576040517f08c379a000000000000000000000000000000000000000000000000000000000815260040161094090611bc1565b60405180910390fd5b42600a60003373ffffffffffffffffffffffffffffffffffffffff1673ffffffffffffffffffffffffffffffffffffffff168152602001908152602001600020819055508160076000600f54815260200190815260200160002090805190602001906109b69291906111f6565b50600f600081548092919060010191905055506109d1610e87565b803373ffffffffffffffffffffffffffffffffffffffff166001600f54037ff714bf6446672ac0095d73814f5195a59f499366df77ebe5489f2c027640f59085604051610a1e9190611adb565b60405180910390a45050565b6000600102600360003373ffffffffffffffffffffffffffffffffffffffff1673ffffffffffffffffffffffffffffffffffffffff1681526020019081526020016000205414151515610ab2576040517f08c379a0000000000000000000000000000000000000000000000000000000008152600401610aa990611c61565b60405180910390fd5b60006007600083815260200190815260200160002080549050111515610b0d576040517f08c379a0000000000000000000000000000000000000000000000000000000008152600401610b0490611c41565b60405180910390fd5b60006006600083815260200190815260200160002080549050141515610b68576040517f08c379a0000000000000000000000000000000000000000000000000000000008152600401610b5f90611b61565b60405180910390fd5b600115156009600083815260200190815260200160002060003373ffffffffffffffffffffffffffffffffffffffff1673ffffffffffffffffffffffffffffffffffffffff16815260200190815260200160002060009054906101000a900460ff16151514151515610c0f576040517f08c379a0000000000000000000000000000000000000000000000000000000008152600401610c0690611b81565b60405180910390fd5b60016009600083815260200190815260200160002060003373ffffffffffffffffffffffffffffffffffffffff1673ffffffffffffffffffffffffffffffffffffffff16815260200190815260200160002060006101000a81548160ff02191690831515021790555042600a60003373ffffffffffffffffffffffffffffffffffffffff1673ffffffffffffffffffffffffffffffffffffffff168152602001908152602001600020819055508115610ce65760086000828152602001908152602001600020600081548092919060010191905055505b610cee610e87565b5050565b600080600080600b54600d54600e54601054935093509350935090919293565b600260009054906101000a900473ffffffffffffffffffffffffffffffffffffffff1673ffffffffffffffffffffffffffffffffffffffff163373ffffffffffffffffffffffffffffffffffffffff16141515610da4576040517f08c379a0000000000000000000000000000000000000000000000000000000008152600401610d9b90611be1565b60405180910390fd5b60006001028114151515610ded576040517f08c379a0000000000000000000000000000000000000000000000000000000008152600401610de490611b41565b60405180910390fd5b6005600082815260200190815260200160002060009054906101000a900460ff16151515610e50576040517f08c379a0000000000000000000000000000000000000000000000000000000008152600401610e4790611ba1565b60405180910390fd5b60016005600083815260200190815260200160002060006101000a81548160ff021916908315150217905550610e84610e87565b50565b610e8f610e99565b610e97610feb565b565b60008090505b600c80549050811015610fe8576000600a6000600c84815481101515610ec157fe5b9060005260206000200160009054906101000a900473ffffffffffffffffffffffffffffffffffffffff1673ffffffffffffffffffffffffffffffffffffffff1673ffffffffffffffffffffffffffffffffffffffff168152602001908152602001600020549050600081141515610fda576000814203905062093a8081101515610fd857600d60008154809291906001900391905055506000600a6000600c86815481101515610f6e57fe5b9060005260206000200160009054906101000a900473ffffffffffffffffffffffffffffffffffffffff1673ffffffffffffffffffffffffffffffffffffffff1673ffffffffffffffffffffffffffffffffffffffff168152602001908152602001600020819055505b505b508080600101915050610e9f565b50565b60008090505b600f5481101561107d5760006007600083815260200190815260200160002080549050118015611037575060006006600083815260200190815260200160002080549050145b15611070576002600d5481151561104a57fe5b046008600083815260200190815260200160002054111561106f5761106e81611080565b5b5b8080600101915050610ff1565b50565b6000600102600360003373ffffffffffffffffffffffffffffffffffffffff1673ffffffffffffffffffffffffffffffffffffffff1681526020019081526020016000205414151515611108576040517f08c379a00000000000000000000000000000000000000000000000000000000081526004016110ff90611c61565b60405180910390fd5b60008090506001805490506007600084815260200190815260200160002080549050111561114757601060008154809291906001019190505550600190505b600760008381526020019081526020016000206006600084815260200190815260200160002090805461117b929190611256565b50600e600081548092919060010191905055508015153373ffffffffffffffffffffffffffffffffffffffff16837ff1514fec8c86870597e15337c3e88975f985815e2c92e8b74993e8dca90a9bfd600760008781526020019081526020016000206040516111ea9190611afd565b60405180910390a45050565b828054828255906000526020600020908101928215611245579160200282015b828111156112445782518290805190602001906112349291906112c6565b5091602001919060010190611216565b5b5090506112529190611346565b5090565b8280548282559060005260206000209081019282156112b55760005260206000209182015b828111156112b457828290805460018160011615610100020316600290046112a4929190611372565b509160010191906001019061127b565b5b5090506112c29190611346565b5090565b828054600181600116156101000203166002900490600052602060002090601f016020900481019282601f1061130757805160ff1916838001178555611335565b82800160010185558215611335579182015b82811115611334578251825591602001919060010190611319565b5b50905061134291906113f9565b5090565b61136f91905b8082111561136b5760008181611362919061141e565b5060010161134c565b5090565b90565b828054600181600116156101000203166002900490600052602060002090601f016020900481019282601f106113ab57805485556113e8565b828001600101855582156113e857600052602060002091601f016020900482015b828111156113e75782548255916001019190600101906113cc565b5b5090506113f591906113f9565b5090565b61141b91905b808211156114175760008160009055506001016113ff565b5090565b90565b50805460018160011615610100020316600290046000825580601f106114445750611463565b601f01602090049060005260206000209081019061146291906113f9565b5b50565b600082601f830112151561147957600080fd5b813561148c61148782611d13565b611ce6565b9150818183526020840193506020810190508360005b838110156114d257813586016114b88882611504565b8452602084019350602083019250506001810190506114a2565b5050505092915050565b60006114e88235611ddd565b905092915050565b60006114fc8235611de9565b905092915050565b600082601f830112151561151757600080fd5b813561152a61152582611d3b565b611ce6565b9150808252602083016020830185838301111561154657600080fd5b611551838284611dfd565b50505092915050565b60006115668235611df3565b905092915050565b6000806040838503121561158157600080fd5b600083013567ffffffffffffffff81111561159b57600080fd5b6115a785828601611466565b92505060206115b8858286016114f0565b9150509250929050565b600080604083850312156115d557600080fd5b60006115e3858286016114dc565b92505060206115f48582860161155a565b9150509250929050565b60006020828403121561161057600080fd5b600061161e848285016114f0565b91505092915050565b60006020828403121561163957600080fd5b60006116478482850161155a565b91505092915050565b6000806040838503121561166357600080fd5b60006116718582860161155a565b92505060206116828582860161155a565b9150509250929050565b600061169782611d98565b808452602084019350836020820285016116b085611d67565b60005b848110156116e95783830388526116cb838351611767565b92506116d682611db9565b91506020880197506001810190506116b3565b508196508694505050505092915050565b600061170582611da3565b8084526020840193508360208202850161171e85611d74565b60005b84811015611756578383038852611738838361179d565b925061174382611dc6565b9150602088019750600181019050611721565b508196508694505050505092915050565b600061177282611dae565b808452611786816020860160208601611e0c565b61178f81611e3f565b602085010191505092915050565b6000815460018116600081146117ba57600181146117da5761181b565b607f600283041680865260ff19831660208701526040860193505061181b565b600282048086526020860195506117f085611d86565b60005b82811015611812578154818901526001820191506020810190506117f3565b80880195505050505b505092915050565b6000600b82527f496e76616c6964206b65790000000000000000000000000000000000000000006020830152604082019050919050565b6000601782527f5265706f727420616c726561647920617070726f7665640000000000000000006020830152604082019050919050565b6000600d82527f416c726561647920766f746564000000000000000000000000000000000000006020830152604082019050919050565b6000601682527f4b657920616c72656164792072656769737465726564000000000000000000006020830152604082019050919050565b6000601782527f57696e646f7773204b65792063616e6e6f7420626520300000000000000000006020830152604082019050919050565b6000602e82527f4f6e6c792074686520636f6e7472616374206f776e65722063616e2063616c6c60208301527f20746869732066756e6374696f6e0000000000000000000000000000000000006040830152606082019050919050565b6000602382527f4e6f7420617661696c61626c6520746f2074686520636f6e7472616374206f7760208301527f6e657200000000000000000000000000000000000000000000000000000000006040830152606082019050919050565b6000601e82527f4265686176696f722061727261792063616e6e6f7420626520656d70747900006020830152604082019050919050565b6000601d82527f50656e64696e67207265706f727420646f6573206e6f742065786973740000006020830152604082019050919050565b6000601b82527f596f7520617265206e6f74206120736f667477617265207573657200000000006020830152604082019050919050565b6000601082527f4b657920616c72656164792075736564000000000000000000000000000000006020830152604082019050919050565b611ad581611dd3565b82525050565b60006020820190508181036000830152611af5818461168c565b905092915050565b60006020820190508181036000830152611b1781846116fa565b905092915050565b60006020820190508181036000830152611b398184611767565b905092915050565b60006020820190508181036000830152611b5a81611823565b9050919050565b60006020820190508181036000830152611b7a8161185a565b9050919050565b60006020820190508181036000830152611b9a81611891565b9050919050565b60006020820190508181036000830152611bba816118c8565b9050919050565b60006020820190508181036000830152611bda816118ff565b9050919050565b60006020820190508181036000830152611bfa81611936565b9050919050565b60006020820190508181036000830152611c1a81611993565b9050919050565b60006020820190508181036000830152611c3a816119f0565b9050919050565b60006020820190508181036000830152611c5a81611a27565b9050919050565b60006020820190508181036000830152611c7a81611a5e565b9050919050565b60006020820190508181036000830152611c9a81611a95565b9050919050565b6000608082019050611cb66000830187611acc565b611cc36020830186611acc565b611cd06040830185611acc565b611cdd6060830184611acc565b95945050505050565b6000604051905081810181811067ffffffffffffffff82111715611d0957600080fd5b8060405250919050565b600067ffffffffffffffff821115611d2a57600080fd5b602082029050602081019050919050565b600067ffffffffffffffff821115611d5257600080fd5b601f19601f8301169050602081019050919050565b6000602082019050919050565b60008160005260206000209050919050565b60008160005260206000209050919050565b600081519050919050565b600081549050919050565b600081519050919050565b6000602082019050919050565b6000600182019050919050565b6000819050919050565b60008115159050919050565b6000819050919050565b6000819050919050565b82818337600083830152505050565b60005b83811015611e2a578082015181840152602081019050611e0f565b83811115611e39576000848401525b50505050565b6000601f19601f830116905091905056fea265627a7a723058206d1f4aa85171177ec23db0fec5aeeb2a7b6186a38130b0e7ca48981a5250252f6c6578706572696d656e74616cf50037",
  "source": "// SPDX-License-Identifier: MIT\r\npragma solidity >=0.4.22 <0.9.0;\r\npragma experimental ABIEncoderV2;\r\n\r\n/**\r\n * @title SCC - Software Compliance Contract\r\n * @dev Manages Software Permissions and Binary Monitoring\r\n */\r\n\r\n/**\r\n * Requirements:\r\n *\r\n * Owner (Company):\r\n *  -> Can submit permissions and binary hash on creation\r\n *  -> Can register keys for software user logins\r\n *\r\n * Software Users:\r\n *  -> Can submit a report for voting\r\n *  -> Can vote on pending reports to publish \r\n *  -> Can revoke authorization upon software uninstallation\r\n *  -> Can link themselves to a valid key upon software installation (login)\r\n *\r\n *  Everyone:\r\n *  -> Consults Binary Hash and Permissions\r\n *  -> Views reports with behaviors.\r\n *  -> Accesses an overview of all reports.\r\n */\r\n\r\ncontract SCC {\r\n\r\n    // variable to define time to inactivity\r\n    uint256 constant inactivityPeriod = 1 weeks;\r\n\r\n    // Binary hash representing the software's unique identifier\r\n    string public binaryHash;\r\n\r\n    // Array storing the list of permissions associated with the software\r\n    string[] public permissions;\r\n\r\n    // Address of the contract owner, typically the company managing the software\r\n    address private owner;\r\n\r\n    /* MAPPING */\r\n    //  User addresses to their respective access keys for software validation\r\n    mapping(address => bytes32) private userToKeys;\r\n    // Keys to used or not used\r\n    mapping(bytes32 => bool) private usedKeys;\r\n    // List registered keys\r\n    mapping(bytes32 => bool) private registeredKeys;\r\n    // Report IDs to arrays of software behavior descriptions\r\n    mapping(uint256 => string[]) public reports;\r\n    mapping(uint256 => string[]) private pendingReports;\r\n    // Maps each pending report ID to the count of approval votes.\r\n    mapping(uint256 => uint256) private pendingReportToApprovalVotes;\r\n    // Tracks whether a user has voted on a specific pending report ID.\r\n    mapping(uint256 => mapping(address => bool)) private userHasVotedOnPendingReport;\r\n    mapping(address => uint256) private userToLastInteraction;\r\n\r\n    /* COUNTER */\r\n    //  for software users\r\n    uint256 private users;\r\n    address[] private usersAddress;\r\n    //  for activate software users\r\n    uint256 private activeUsers;\r\n    //  for generated reports\r\n    uint256 private reportCount;\r\n    //  for pending reports\r\n    uint256 private pendingReportCount;\r\n    // For reporting permissions that have been violated\r\n    uint256 private violatedPermissionsCount;\r\n\r\n    // Event emitted when a new software behavior report is generated\r\n    event ReportGenerated(\r\n        uint256 indexed reportId, // Unique identifier for the report\r\n        address indexed user, // Address of the user who generated the report\r\n        string[] reportSoftwareBehavior, // Array of behaviors reported by the user\r\n        bool indexed violated //Flag indicating if permissions were violated\r\n    );\r\n\r\n    //Event emitted when a pending software behavior report is generated\r\n    event pendingReportGenerated(\r\n        uint256 indexed reportId, // Unique identifier for the report\r\n        address indexed user, // Address of the user who generated the report\r\n        string[] reportSoftwareBehavior, // Array of behaviors reported by the user\r\n        bytes32 indexed windowsKey // windows key associated with this report\r\n    );\r\n\r\n    /* MODIFIERS */\r\n    // Restrict access to owner-only functions\r\n    modifier onlyOwner() {\r\n        require(msg.sender == owner, \"Only the contract owner can call this function\");\r\n        _;\r\n    }\r\n\r\n    //Restrict access to functions not allowed for the contract owner.\r\n    modifier onlyNotOwner() {\r\n        require(msg.sender != owner, \"Not available to the contract owner\");\r\n        _;\r\n    }\r\n\r\n    //Restrict access to functions allowed only for registered software users.\r\n    modifier onlySoftwareUser() {\r\n        require(userToKeys[msg.sender] != bytes32(0), \"You are not a software user\");\r\n        _;\r\n    }\r\n\r\n    // Constructor to initialize the contract with binary hash and permissions\r\n    constructor(string memory _binaryHash, string[] memory _permissions) public {\r\n        owner = msg.sender;\r\n        binaryHash = _binaryHash;\r\n        permissions = _permissions;\r\n    }\r\n\r\n    // allow software user to create a pending report\r\n    function reportPendingSoftwareBehavior(string[] memory _behavior, bytes32 _windowsKey) public onlySoftwareUser{\r\n        require(_behavior.length > 0, \"Behavior array cannot be empty\");\r\n        require(_windowsKey != bytes32(0), \"Windows Key cannot be 0\");\r\n        userToLastInteraction[msg.sender] = block.timestamp;\r\n        pendingReports[pendingReportCount] = _behavior;\r\n        pendingReportCount++;\r\n        updateInactiveUsersAndApproveReports();\r\n        emit pendingReportGenerated(pendingReportCount - 1, msg.sender, _behavior, _windowsKey);\r\n    }\r\n\r\n    //// Allows software users to vote on pending reports until 50% + 1 approve the report.\r\n    function voteOnPendingReport(bool approve, uint256 pendingReportID) public onlySoftwareUser{\r\n        require(pendingReports[pendingReportID].length > 0, \"Pending report does not exist\");\r\n        require(reports[pendingReportID].length == 0, \"Report already approved\");\r\n        require(userHasVotedOnPendingReport[pendingReportID][msg.sender] != true, \"Already voted\");\r\n        userHasVotedOnPendingReport[pendingReportID][msg.sender] = true;\r\n        userToLastInteraction[msg.sender] = block.timestamp;\r\n        if(approve){\r\n            pendingReportToApprovalVotes[pendingReportID]++;\r\n        }\r\n        updateInactiveUsersAndApproveReports();\r\n    }\r\n\r\n    // Function for contract to approve a new report\r\n    function approvePendingReport(uint256 pendingReportID) internal onlySoftwareUser{\r\n        bool violated = false;\r\n        if (pendingReports[pendingReportID].length > permissions.length) {\r\n            violatedPermissionsCount++;\r\n            violated = true;\r\n        }\r\n        reports[pendingReportID] = pendingReports[pendingReportID];\r\n        reportCount++;\r\n        // Emit event to notify about the new report generated\r\n        emit ReportGenerated(pendingReportID, msg.sender, pendingReports[pendingReportID], violated);\r\n    }\r\n\r\n    // Key example: 0x1234567890abcdef1234567890abcdef1234567890abcdef1234567890abcdef\r\n    // Function to register a new valid key and not used\r\n    function registerKey(bytes32 _key) public onlyOwner {\r\n        require(_key != bytes32(0), \"Invalid key\");\r\n        require(!registeredKeys[_key], \"Key already registered\");\r\n        registeredKeys[_key] = true;\r\n        updateInactiveUsersAndApproveReports();\r\n    }\r\n\r\n    // Function to a software user authorize yourself\r\n    function authorizeUser(bytes32 _key) public onlyNotOwner {\r\n        require(registeredKeys[_key], \"Invalid key\");\r\n        require(!usedKeys[_key], \"Key already used\");\r\n        userToKeys[msg.sender] = _key;\r\n        usedKeys[_key] = true;\r\n        users++;\r\n        usersAddress.push(msg.sender);\r\n        activeUsers++;\r\n        userToLastInteraction[msg.sender] = block.timestamp;\r\n        updateInactiveUsersAndApproveReports();\r\n    }\r\n\r\n    // Function for software users to revoke their own authorization\r\n    function revokeAuthorization() public onlySoftwareUser {\r\n        userToKeys[msg.sender] = bytes32(0);\r\n        users--;\r\n        // if user wasnt inactive, decrement active users\r\n        if(userToLastInteraction[msg.sender]!=0){\r\n            activeUsers--;\r\n        }\r\n        updateInactiveUsersAndApproveReports();\r\n    }\r\n\r\n    // Function to return a report overview\r\n    function retrieveReportOverview() public view returns (uint256, uint256, uint256, uint256){\r\n        return (users, activeUsers, reportCount, violatedPermissionsCount);\r\n    }\r\n\r\n    // update the activeUser count to approve pending report\r\n    function checkAndUpdateInactiveUser() internal {\r\n        for (uint256 i = 0; i < usersAddress.length; i++) {\r\n            uint256 lastInteraction = userToLastInteraction[usersAddress[i]];\r\n            if (lastInteraction != 0) {\r\n                uint256 timeElapsed = block.timestamp - lastInteraction;\r\n                if (timeElapsed >= inactivityPeriod) {\r\n                    // If the user has become inactive\r\n                    activeUsers--;\r\n                    // Reset the interaction timestamp to 0\r\n                    userToLastInteraction[usersAddress[i]] = 0;\r\n                }\r\n            }\r\n        }\r\n    }\r\n\r\n    function checkAndApprovePendingReports() internal {\r\n        for (uint256 i = 0; i < pendingReportCount; i++) {\r\n            // Checks if the report is still pending and not yet approved\r\n            if (pendingReports[i].length > 0 && reports[i].length == 0) {\r\n                // Checks if more than half of the active users have approved the report\r\n                if (pendingReportToApprovalVotes[i] > activeUsers / 2) {\r\n                    approvePendingReport(i);\r\n                }\r\n            }\r\n        }\r\n    }\r\n\r\n    function updateInactiveUsersAndApproveReports() internal {\r\n        checkAndUpdateInactiveUser();\r\n        checkAndApprovePendingReports();\r\n    }\r\n}",
  "sourcePath": "C:\\Users\\hyago\\Desktop\\Mestrado\\SCC\\truffle-contract\\contracts\\SCC.sol",
  "compiler": {
    "name": "solc",
    "version": "0.5.1+commit.c8a2cb62.Emscripten.clang"
  },
  "schemaVersion": "3.4.16",
  "updatedAt": "2024-08-30T19:54:20.170Z",
  "networkType": "ethereum",
  "devdoc": {
    "methods": {}
  },
  "userdoc": {
    "methods": {
      "voteOnPendingReport(bool,uint256)": {
        "notice": "/ Allows software users to vote on pending reports until 50% + 1 approve the report."
      }
    },
    "notice": "Requirements:\r  * Owner (Company):\r -> Can submit permissions and binary hash on creation\r -> Can register keys for software user logins\r  * Software Users:\r -> Can submit a report for voting\r -> Can vote on pending reports to publish \r -> Can revoke authorization upon software uninstallation\r -> Can link themselves to a valid key upon software installation (login)\r  *  Everyone:\r -> Consults Binary Hash and Permissions\r -> Views reports with behaviors.\r -> Accesses an overview of all reports.\r"
  }
}